:1020000000800020DD260000C5260000C526000057
:1020100000000000000000000000000000000000C0
:10202000000000000000000000000000C5260000C5
:102030000000000000000000C5260000312700005D
:10204000C5260000C5260000C5260000C5260000E4
:10205000C5260000C5260000C5260000C9260000D0
:10206000C5260000C5260000C5260000C5260000C4
:10207000C52600001526000005260000C526000024
:10208000C5260000C5260000C5260000C5260000A4
:1020900000000000C5260000C5260000C52600007F
:1020A000C5260000C5260000C5260000C526000084
:1020B0000000000010B5064C2378002B07D1054B1B
:1020C000002B02D0044800E000BF0123237010BDA4
:1020D0001002002000000000D8560000044B10B58C
:1020E000002B03D00349044800E000BF10BDC046E8
:1020F0000000000014020020D856000070B51D4CEE
:102100001D49200000F02AF9E1212000490200F0D9
:1021100017F90121200000F0FDF8184D00280AD021
:102120001749280000F061FE20000A2100F0A7F8FE
:10213000200000F004F900212000012200F0D2F973
:102140000121200000F0E6F8002806D00D49280003
:1021500000F04BFE200000F0F2F828000A4900F0E1
:1021600051FE0121062000F01FFD0121062000F094
:102170001BFD70BD34020020B80B000014070020C6
:102180003E5100004F5100005651000070B500F064
:10219000DDFA2E4D002836D02D4C200000F074F8CA
:1021A0002C4B18602C4B1A6890424CD31A68821A38
:1021B000F92A2CD9FA2118604900200000F048F9CA
:1021C0000121200000F0A6F8002814D001212000F1
:1021D00000F05EF82149280000F007FE00F0B6FA92
:1021E0000A220100280000F03BFE200000F088F8E1
:1021F000200000F0A4F82000052100F040F82000A5
:1022000000F034F903E000F0A1FA0128C4D86420FA
:1022100000F0D2FA0021062000F012FD0021062075
:1022200000F00EFDE120800000F0C6FA012106203A
:1022300000F006FD0121062000F002FD28000849FB
:1022400000F0E0FD70BD1860B0E7C0461407002044
:10225000340200202C0200203002002038510000FF
:102260003A51000070B50C0000F070FA0500241817
:1022700000F06CFA854201D88442F9D270BD10B5E5
:102280000122FFF7EFFF10BD10B500F05FFA10BD9F
:10229000F8B506000F0000F059FA0500144C154976
:1022A000200000F0A2FD0A223900200000F0E4FD29
:1022B0001149200000F099FD29000A22200000F0B9
:1022C000CFFD0E4F2000390000F08FFDB3680A22C9
:1022D000E91A200000F0C4FD3900200000F085FD5F
:1022E000B168F3680A22C91A200000F0B9FDF8BDF0
:1022F00014070020745100007B5100007D51000044
:1023000010B50249024800F07DFD10BD6D5100007E
:102310001407002010B5040000290BD100F016FAB4
:102320006368C01A632805D864210122091A2000B5
:10233000FFF798FF00F00AFA6060012010BD7047B7
:10234000FA2010B50C00800000F036FA2100024897
:1023500001F0F4FB10BDC04614070020002310B5A7
:1023600043644360994201D0FFF789FF10BD00002C
:1023700070B505000E0000F0E9F90A4C68600A49E2
:10238000200000F032FD0A223100200000F074FD30
:102390000649200000F036FD28003221FFF76FFFCC
:1023A00070BDC046140700205F5100006651000058
:1023B0000022034B9A60DA601A615A617047C04686
:1023C0003402002010B5024801F062FBC0B210BD1B
:1023D0001407002073B51D4C0600200001F04AFBD5
:1023E000C0B2642830D13000FFF7ECFF200001F0CC
:1023F0004FFB0025C3B201A83A2B07D0435520005C
:1024000001F046FB0135EDB2C3B2F4E702F0AEFCD9
:102410000500200001F03CFBC1B23039012902D88F
:10242000280000F00DFC200001F032FBC0B20A28A9
:1024300001D00D28F7D1200001F01CFBC0B20A2802
:1024400002D13000FFF7BEFF73BDC0461407002065
:10245000002310B5436183680161C360040000F08C
:1024600075F9A0602000FFF7B5FF10BD10B504009E
:10247000FFF7B0FF00F06AF9A06010BDF7B5019159
:10248000037E05006320002B08D0154EFF27300087
:1024900001F0C2FAC0B2002801D16520FEBD3000B3
:1024A00001F0BAFAC0B20028F7D0300001F0F0FA1B
:1024B00004003C40682C08D009DC582C0DD0632C5B
:1024C000EDD101992800FFF753FF6320E6E7712C57
:1024D000FBD0762CE3D1C0B2E0E700232B76F4E703
:1024E0001407002070B50400150000290CD001234A
:1024F000037600212000FFF7C1FF632804D00121EB
:102500002000FFF7BCFEF4E7257670BD70B5012111
:10251000202000F049FB0021202000F091FB0A2040
:1025200000F04AF90021202000F03EFB642000F07A
:1025300043F9202000F0CCFA962305009B002F4C95
:10254000984222D92E49200000F092FE200000F08F
:102550007BFD03210B2000F09FFB03210C2000F0EA
:102560009BFB00226B21200000F0A4FD0121200034
:1025700000F0E2FD1B21200000F0DEFD2000032121
:1025800000F082FD200000F074FD1D49200000F0E5
:102590006FFE200000F058FD03210B2000F07CFBB3
:1025A00003210C2000F078FB00226B21200000F0BA
:1025B00081FD0721200000F0BFFD96232B219B0009
:1025C0009D4200D92039200000F0B6FD03212000F3
:1025D00000F05AFD200000F04CFD01211E2000F00B
:1025E000E3FA01211E2000F02BFB01211F2000F047
:1025F000DBFA01211F2000F023FB70BDFC06002048
:10260000A086010010B5024800F0E1FF10BDC046F1
:102610007C02002010B5024800F0D9FF10BDC04672
:10262000B80400207FB51949194800F077FC194912
:10263000194800F073FC1949194800F06FFC19495A
:10264000194800F06BFC194C1949200000F066FC99
:10265000184E1949300000F061FC012503233100B8
:10266000019500930D220B33144800F045FF1D2304
:102670000393013B02931A3B0193009518331B22ED
:1026800021000F4800F0F4FE7FBDC0460008004264
:10269000F4060020000C0042F80600200010004262
:1026A000FC06002000140042000700200407002060
:1026B0000018004208070020001C00427C02002095
:1026C000B8040020FEE70000034B10B51B68002B88
:1026D00000D0984710BDC0460C07002070B50F49C8
:1026E0000F4CA14204D100F08FF800F035FBFEE75B
:1026F0000C4D00238D42F6D0CA18E818A24205D32B
:10270000094B8242EFD00949002204E000680433FB
:102710001060F1E704C38B42FCD3E4E70000002023
:1027200010020020DC56000010020020480D00209E
:1027300010B500F066F8002801D100F057F810BD80
:10274000014B18607047C0460C070020014B186809
:102750007047C04610070020F7B513480122844691
:102760001249134C8E68636805689B0E13400192F2
:1027700088686268019F920E3A4067463F689342BC
:102780000ED1BD420CD186420AD35B19FA254868A6
:10279000AD00861B07486B437043000DC018FEBD9B
:1027A0003D0013000600E3E71007002010E000E002
:1027B00000ED00E05555000070B5041E10D0FFF785
:1027C000CBFF050000F01CF8FFF7C6FF054B401BD0
:1027D0009842F7D9FA23013C9B00ED18002CF3D165
:1027E00070BDC046E70300007047000010B5034A03
:1027F00013680133136000F055FB10BD1007002073
:1028000070470020704700001E2270B546484749B7
:10281000436893431C3A1343436008238C69234362
:102820008B61434C434B9C829C8A14439C82DC68A2
:102830001442FCD00124404A14701578254203D07C
:1028400055786DB2002DF8DB01249460547864B2A1
:10285000002CFBDB394C5460547864B2002CFBDB59
:102860008224E4015480547864B2002CFBDB0224FF
:102870009C840E34DD682542FCD0314CDC6210248F
:10288000DD682542FCD09D8C2E4C2C439C8410246A
:10289000DD682542FCD002249D8C80262C439C843C
:1028A0004024DD683542FCD0DD682542F9D0102493
:1028B000DD682542FCD000249460547864B2002C7A
:1028C000FBDB214C5460547864B2002CFBDB1C6AA7
:1028D0001E4D2C4080251C621C6AAC431C620323E5
:1028E00093601B4B536053785BB2002BFBDB0023E0
:1028F000FF240B72174A4B728B72CB72164B1A6005
:10290000164B174A1B6811689A065B01C90E2340D3
:10291000520F12020B431343124A1385802342685D
:102920001343436070BDC0460040004100040040B6
:102930000C06000000080040000C004001050100EA
:10294000B905FF7D040A000000070300FFFCFFFF3C
:1029500003060100006CDC020000002024608000FF
:102960002060800000400042FA21314B10B5186809
:10297000890002F06FF92F4B0138984256D82E4942
:102980002E4A4860C020136A00061B021B0A03433C
:102990001362002407238C600B608021136A0906F0
:1029A0001B021B0A0B431362FC22254B196A0A43C4
:1029B0001A62FC22196A92010A431A62A022196A59
:1029C000D2020A431A6220000021013400F0ECF820
:1029D0000F2CF8D11B4B1C005A7852B2002AFBDB9B
:1029E000194A5A80194B1A00597EC9090129FBD08E
:1029F000E421C90099803F21D970537EDB09012B66
:102A0000FBD0C02300205B011361907000F02EF812
:102A100063785BB2002BFBDB0D4B0E4A6380D379EE
:102A2000DB09012BFBD04123537010BDFEE7C046EC
:102A300000000020FFFFFF0010E000E000ED00E0DC
:102A400000040040000C00401E4000000040004216
:102A50002140000000480042914202D002D98A1A67
:102A6000D0407047521A9040FBE70000164A00B56C
:102A70001300517EC9090129FBD00138042816D85A
:102A80001969124A0A400F211A615A788A4302F0E2
:102A9000D7F80308060B0300110001220A435A70FD
:102AA00000BD11000322F9E711000222F6E7F0232E
:102AB00011691B050B430F21136153788B431900D8
:102AC00002230B435370EBE700400042FFFFFFF08F
:102AD00010B504000E2800D80F340121200000F0AA
:102AE000DBF81823102163432A4CE41861560029AF
:102AF00001D014290DD1284B1800DA79D209012A06
:102B0000FBD002241A78A2431A70C379DB09012B87
:102B1000FBD022480300427ED209012AFBD01F24A9
:102B200002692140A2430A4302615A7ED209012A66
:102B3000FBD0022219780A431A705A7ED209012A60
:102B4000FBD00222197B0A431A731A7ED207FCD5E6
:102B500001221A765A7ED209012AFBD00222197B61
:102B60000A431A731A7ED207FCD5588B80B25A7E5C
:102B7000D209012AFBD002211A788A431A705A7EA0
:102B8000D209012AFBD0064B1A68064B1968FFF7D9
:102B900063FF10BD80510000004800420040004229
:102BA0000800002004000020182330B51D00040098
:102BB00045430820204A55192856013014D00329CE
:102BC00012D808006343D156D31802F039F802280E
:102BD0000E1B5868CB010221184A9B181A18403264
:102BE0001170012282405A6030BD5868CB01062125
:102BF000124A9B181A1840321170012282405A6002
:102C00009A61F1E75868CB0106210C4A9B181A1803
:102C100040321170012282405A605A61E4E75868DC
:102C2000CB010221054A9B181A184032117001226B
:102C300082409A60D8E7C0468051000000440041BD
:102C40001823F0B508245843114A13181C570134AF
:102C50001BD0012635005F688356BD400D4ADB015D
:102C60009A18906805420BD10C00601E8441D2195D
:102C70004032107834400336A400B0432043107033
:102C8000044A9B18002901D15D61F0BD9D61FCE7FC
:102C9000805100000044004118224243F8B52C4EF8
:102CA0000300B218127A52B2140001320ED0481C3E
:102CB00000240C280AD801F0C3FF071F1F1F1F1F85
:102CC0001F1F1F0B0B0B0B00012464422000F8BDDB
:102CD000092905D100211800FFF766FF0024F5E758
:102CE0000A2901D10839F6E700240B29EED10A3967
:102CF0001800FFF759FFE9E718225343F218556807
:102D000001202C00F356134ADB016E089B18C9B250
:102D100004409E19002C0DD00F2430363278090162
:102D200022401143C9B25B19317040331A78104305
:102D30001870D3E732000F27303216785B19BE4384
:102D40003143117040331A7810431870BEE7C04603
:102D5000805100000044004110B5FFF705FE02F06D
:102D60000BF8FFF7D3FB0120FFF726FD084C2000EE
:102D700001F0F8F9200001F0A3FAFFF7BFF9FFF71F
:102D800005FA044B002BFAD000E000BFF7E7C0467D
:102D90007C07002000000000F7B506000D000C00C5
:102DA0008B180193019B671B9C4207D033682178E5
:102DB0001B683000984701340028F3D13800FEBD6D
:102DC00070B5040008000D0002F0F0F8236802005E
:102DD00029005B682000984770BD10B50B1E02D01B
:102DE000FFF7EEFF0300180010BD10B5FFF7F5FF69
:102DF00010BD000010B50249FFF7E2FF10BDC0464C
:102E0000E054000070B50400FFF7E7FF0500200064
:102E1000FFF7F0FF401970BDF0B58BB06B461500A1
:102E2000002205330600DA770800012D00D80A25B4
:102E300009AC290001F094FFCAB213003733070030
:102E4000DBB2092902D813003033DBB2013C237016
:102E5000002FEED121003000FFF7BFFF0BB0F0BD17
:102E600010B5002A04D10368C9B21B68984710BD89
:102E7000D2B2FFF7D1FFFAE710B5FFF7F1FF10BDAF
:102E800010B50400FFF7B0FC014B1C6010BDC0463C
:102E90000C0000200122024B52421A607047C046CB
:102EA0000C000020164A10B51368591C26D0013BAF
:102EB0001360002B22D172B6124B134A0433934293
:102EC00013D9124A01211000147D0C42FCD020219C
:102ED000148BFF319B085B0021431183D3610C4BA2
:102EE00013800123027D1A42FCD0BFF34F8F094BA0
:102EF000094ADA60BFF34F8FC046FDE710BDC046F8
:102F00000C000020002000000302000000400041EF
:102F100002A5FFFF00ED00E00400FA050160704724
:102F20009446F0B59E1E721E964162460568920751
:102F30002F6836063A4332432A60072505AC2478C9
:102F40000068A4012940214342680024022B00D0DC
:102F50005C03114321434160F0BD30B5C0250368D7
:102F6000AD031C6812052A402243C0240904A402B0
:102F700021401143196003685A6814435C6030BDF6
:102F80000123026811680B43136003681A68D207B3
:102F9000FCD4DA69D207F9D47047022302681168B9
:102FA0000B4313600268D3699B07FCD47047036826
:102FB0001A7ED20702D41A7E9207FCD570470022EF
:102FC00003685A8370470368187E4007C00F704734
:102FD0000368187EC0097047802302685B42117E37
:102FE0000B43137670470368588B8007C00F7047F8
:102FF00002230268518B0B43538370470368187E8A
:10300000C007C00F70470368188DC0B270470368CF
:103010001A7ED207FCD589B201201985704701229A
:1030200003689A757047012203681A757047012377
:10303000026811680B43136003681A68D207FCD456
:10304000DA69D207F9D470470223026811680B438A
:1030500013600368DA699207FCD430215A8B8A43E3
:10306000110010220A435A830268D3695B07FCD41B
:1030700070470221026813688B4313600268D369AA
:103080009B07FCD470470000032230B50368114051
:103090001C68074D5A6809042A40E4061143640F6E
:1030A0005960052C03D10268D3695B07FCD430BD9D
:1030B000FFFFFCFF70B5056804006B8B9B069B0F40
:1030C000022B0DD06B8B00209B069B0F032B32D065
:1030D0006B8B9B0704D56B8B9B069B0F012B2AD117
:1030E0006B6A49001143DB0AC9B2DB020B436B6216
:1030F0002368002A13D11A7ED207FCD55B8B9B066E
:103100009B0F022B04D0490800222000FFF7D2FFBA
:103110002368588B4007C30F012058400BE0187EEE
:103120008007C00FF4D11A7ED207F8D5C0225968A3
:1031300092020A435A6070BD03682833197003680D
:10314000187EC007C00F03D15A8BD207F8D570473D
:10315000588B4007C30F01205840F8E70368214A05
:1031600030B593422FD0204A93422FD01F4A93422A
:103170002FD01F4A93422FD01E4A93422FD01E4A6F
:1031800093421FD10E2319220121032599401B4888
:10319000C024016099082B40AB40FC359D4089005C
:1031A0000918A4000859A843C0259D402B000343DB
:1031B0000B518023DB011A43114B5A805A7852B2CB
:1031C000002AFBDB30BD09231422DDE70A23152288
:1031D000DAE70B231622D7E70C231722D4E70D23B7
:1031E0001822D1E700080042000C00420010004203
:1031F0000014004200180042001C004200E100E000
:10320000000C0040F8B504000F0016001D00FFF789
:10321000A5FF2000FFF7B4FE1C21BB000B40710787
:103220002268090C0B431360842322689375012FD5
:103230001AD11021012E00D008390C4B69431868AF
:10324000C00001F007FD0722216802408B8952036C
:10325000DB04DB0C13438B81226803049089DB0CB5
:10326000400B400318439081F8BDC0460000002089
:10327000F8B504000F00FFF771FF2000FFF7D7FE3D
:103280001422236879001A600C4B25681E683000F0
:1032900001F0E0FC0A490400300001F0DBFC7D2372
:1032A000FA215843C90001F0D5FCFF23241AE8682D
:1032B000053C1C4098430443EC60F8BD000000202E
:1032C00040420F000120704710B50368014A1B6A95
:1032D000984710BD130400000300FC33D9699A69B4
:1032E000914203D0DB69C018007D70470120404245
:1032F000FBE710B504000069FFF742FE220000233F
:10330000FC329361D36186229200A4186360A360AB
:1033100010BDF02001403039484248417047F02349
:103320001B011940802306209B0099420AD00133DB
:10333000FF330130994205D0802302385B00994267
:1033400000D0002070470F2001400020012903D049
:103350000239481E8141481C704700008923F0B59E
:10336000182685B002919B000400C05C3300082140
:103370004343324D1700EB185956FFF78DFC304B85
:103380000821E05C33004343EB185956FFF784FCF7
:103390002C4BE25C0393022A09D11133E05CFF2835
:1033A00005D008214643AE197156FFF775FC8A26F1
:1033B000B600A05DFF2819D00121FFF7F5FB182208
:1033C000A35D21495A43AB56AD18DB0158188B2138
:1033D000890060501D4901225B188C2189006350CF
:1033E00069688A408D21890062501A600122029B1F
:1033F00011002069FFF706FF39002000FFF78FFF5B
:10340000390005002000FFF79EFF3900060020006C
:10341000FFF77FFF33000090290020690122FFF7AA
:103420007FFD0B4B2069E25C039BE15CFFF795FDA0
:103430002069FFF7B2FD05B0F0BDC0468051000025
:1034400025020000270200001844004114440041F6
:1034500026020000802210B504005200002101F075
:10346000E2FC23000022FC335A6020009A6010BD69
:10347000F0B585B01D000AAB1B78040000930BABC0
:103480001B78160001930CAB1B780F0002930DAB59
:103490001B78039300234360FA239B008360124B45
:1034A000083303601430FFF7D5FF20001D30FF30D4
:1034B000FFF7D0FF89236A469B002761E6540B4B38
:1034C0001278E5540A4B2000E2546A46094B1279FF
:1034D000E2546A46127A0133E2546A46127B103390
:1034E000E25405B0F0BDC046E454000025020000DF
:1034F0002602000027020000F7B51D0008AB1B786C
:103500000400009309AB1B7816000193002343606D
:10351000FA239B008360114B0F00083303601430C3
:10352000FFF798FF20001D30FF30FFF793FF89233E
:103530006A469B002761E654094B1278E554094B13
:103540002000E2546A46084B1279E2548A22293B51
:10355000FF3B9200A3541032A354FEBDE45400007C
:103560002502000026020000270200000300FC33B1
:1035700058689B68C01A01D50130FF30704710B5FC
:10358000040020001D30FF30FFF7F0FF0028F8D1C5
:103590002069FFF70CFD10BD10B51430FFF7E6FFF2
:1035A00010BD0300FC3359689A68914204DB5A68E5
:1035B0009868801AFF30704798685B68C01A0138B5
:1035C000F9E710B51D30FF30FFF7EBFF10BD10B568
:1035D00004000069FFF707FD002805D02069FFF708
:1035E00012FD2069FFF704FD2069FFF7ECFC0028BD
:1035F00020D02069FFF707FD2200FC329369D169D2
:103600000133DBB28B4203D0916961180875936175
:103610008A239B00E35CFF2B0CD020001430FFF7C3
:10362000C0FF092806DC8B238D229B009200E35803
:10363000A2581A602069FFF7E1FC00281AD0200088
:103640001D30FF30FFF792FF002822D086239B0019
:10365000E31899685A68914218D08E219A684900F7
:10366000A218515C9A680132D2B29A60C9B220693C
:10367000FFF7CDFC2069FFF7ABFC002805D02069DF
:10368000FFF7AAFC2069FFF79AFC10BD012149420F
:10369000ECE72069FFF7C7FCECE7000070B5040019
:1036A00000690D00FFF7AAFC00283ED1FF26862303
:1036B0009B00E3185A689968013232408A4223D14C
:1036C000EFF31083DB0710D41E4B5B68DB05DB0DCB
:1036D000EDD0103B5BB2002B10DA0F221340083BF9
:1036E0009B08194A9B009B181B682069FFF786FC02
:1036F0000028DCD02000FFF76AFFD8E79B08C03322
:10370000124A9B009B58F0E75A68013216409A68AB
:10371000964205D08E215A684900A21855545E6021
:103720002069FFF77CFC012070BD20001D30FF30B8
:10373000FFF71CFF0028B9D129002069FFF767FCBB
:10374000F1E7C04600ED00E01CED00E000E100E024
:10375000030070B5FC33D9699A69040091421AD00C
:10376000DA698218157DDA690132D2B2DA618A2308
:103770009B00E35CFF2B0CD020001430FFF711FFFF
:103780000A2806DD8C238D229B009200E358A25864
:103790001A60280070BD01256D42E8E700207047DF
:1037A00070B50F26CB1D013902003240D5B22C0076
:1037B00000093034092A00DD07341C70013B8B42BC
:1037C000F2D170BD10B50C000B4B1868FFF7E8FF85
:1037D00021000A4B08311868FFF7E2FF2100084B6F
:1037E00010311868FFF7DCFF2100064B183118680C
:1037F000FFF7D6FF202010BD0CA0800040A0800065
:1038000044A0800048A0800008B4024B9C461038B9
:1038100008BC6047C537000070473F20704713B5AC
:103820006B460268D9710733546819000122A0471A
:1038300016BD000070B50A260B7892B06E440233B4
:1038400005000B703C220021300001F0ECFA3948F1
:1038500001AC06903848242107900620207768465E
:10386000364AA1742281364A364BA281FD3AFF3A8C
:103870008018C177684623390630C177684607301B
:10388000C17702A8C1770720F2770326083169447F
:10389000C87703A9CE7710212B366E4431700926E4
:1038A00021851F3169440E700CA9053E0E7033212D
:1038B0002380022369440B7006360DA90E7022493D
:1038C0003536A1863B216E44307010A86274E277D1
:1038D00002703D3269446A440B701370402100222B
:1038E000E37023716371A37341336B4421871970B3
:1038F0005A702B7DC039A370A37263770133DBB29A
:10390000A3776A7D0B200D0068441543C5773120ED
:10391000684403703A23501C6B44187041230232F0
:103920000A436B441A7021004222084800F05CFFF1
:1039300012B070BD10010424020605240904000021
:1039400001020000080B0000070500007C070020B2
:1039500008B4024B9C46103808BC6047353800005C
:1039600070B5027D0B790C0000259A420BD10B78C3
:103970004E78A12B09D1212E05D107221F492048BD
:1039800000F032FF0135280070BD212BFBD1202E25
:103990002BD1072219491A4800F068FE174B1A78F4
:1039A0005978090211439A7812041143DA78120601
:1039B0000A439621C9008A421DD1DB79DB071AD45C
:1039C000FA20FFF75DFA00210D4801F019F80125F2
:1039D000232ED8D1E378A2781B021343094A002191
:1039E0000748136001F00CF8CDE7222EEFD18A785A
:1039F000024BDA71D2E7FFF74DFAE4E7140000203A
:103A00007C0700201000002008B4024B9C461038B0
:103A100008BC60476139000010B5417D006A013182
:103A200000F05CFD034B1B6801335A1E93411818CC
:103A300010BDC0461C00002010B5417D006A023157
:103A400000F062FD10BD10B5417D006A023100F04A
:103A500029FD10BD70B50D00417D04001300023139
:103A60002A00006A00F016FE002801D101236360DD
:103A700070BD000010B5054C23685A1C04D10368C2
:103A80005B69984703002060180010BD1C000020EF
:103A9000074A0300106810B5411C03D001235B42A4
:103AA000136010BD597D186A013100F0A3FDF8E7DD
:103AB0001C0000207047002070470000FA239B0084
:103AC00010B583600F4B0022C3820300283383614B
:103AD0000D4B04004260C26118004433236108307A
:103AE000631D21622060DA778323A362813BE36256
:103AF0008033236300F0AEF82100103100F07EF82F
:103B0000200010BD0302000018550000022110B56E
:103B1000094B1A68437D5B01D318FF339C7A21431C
:103B20009972437D0133DBB25B01D3180122FF336D
:103B3000997A0A439A7210BD340C00207047000035
:103B400010B502490248FFF7B9FF10BD7C070020FD
:103B50001407002070B50E0000254468002C0BD01F
:103B6000236831005B6820009847002802DB2D188D
:103B7000E468F3E701256D42280070BD70B50D00C3
:103B80004468002C08D0236829009B6820009847CF
:103B9000002802D1E468F4E7200070BD70B50D0084
:103BA00000264468002C09D02368290020001B69E6
:103BB000984736182D18F6B2E468F3E730002C70F9
:103BC00070BD70B50D004468002C08D02368290032
:103BD0001B6820009847002802D1E468F4E7200021
:103BE00070BD70B50D004468002C06D0236820001D
:103BF000DB6829009847E468F6E770BDF0B58C797A
:103C0000457803002A190020072A1FDC5A688242DF
:103C100016D159601A78C8790A7112184D711A7044
:103C200000220B4DD0B284420FD98F68587896008D
:103C3000F75986000130775101325870F2E70200DF
:103C4000D0680028FBD1D160E4E70120F0BDC04678
:103C5000540700200121064A10B5136805480B409F
:103C600004D18024640004804360116010BDC0460C
:103C7000480700204C070020704710B5040000F0F2
:103C8000DBFF200010BD0000F0B5822919D1C3B2BE
:103C9000294D5A01AA189169284C80010C40C02175
:103CA00089052143916126490833401870215061EC
:103CB00028685B011A5C8A43110030220A431A54B7
:103CC000F0BD0029FCD1C026C1B21B4C4B01E3184A
:103CD0009A681A4DB6052A4032439A60194A800103
:103CE00082185A600A000727246808325201115DC1
:103CF000B9430F000121394311559F6910493D40D7
:103D000040182E439E6158617020115D8143080068
:103D100010210143115599680B48A21808408021D1
:103D20004903014399609968890B8903996040238D
:103D300011790B431371C3E7340C0020FFFFFF8F91
:103D4000A807002068090020FF3F00F0EFF3108370
:103D500003600123436072B670470368002B02D1F1
:103D600062B6BFF36F8F7047F7B50600FC36B369D4
:103D70000400002B18D1B2277F00C55D6846FFF70D
:103D8000E5FF019BEDB2013B02D3E55DEDB2FAE741
:103D900068460193FFF7E1FF002D01D10020FEBD31
:103DA000706E336EC01AFAE76846FFF7CFFFD8226D
:103DB0000025019B5200013B02D3A55CEDB2FAE75E
:103DC00068460193FFF7C9FF002DE7D0D6235B00BB
:103DD000E058043BE358E5E710B54468FC3043691C
:103DE0000B48DBB25A01A2189168083308408021C1
:103DF00049030143916091685B01890B89039160DC
:103E00002268D318402219790A431A7110BDC0469E
:103E1000FF3F00F0F7B50500FC356B694268DBB287
:103E2000190004000831106849014118C979C9070F
:103E300011D55B01D21893689B049B0C0CD1200018
:103E4000FFF7CAFF63681A686B69DBB208335B016E
:103E5000D3187F22DA71F7BDE969002923D16B6697
:103E6000230001266933FF33EE6168465360B227B1
:103E7000FFF76CFF7F00B221019BFF31013B5A1C11
:103E800038D0D822E6555200A25C581ED2B26254F5
:103E9000625C8446002A04D120000193FFF79CFF56
:103EA000E9E76346EBE7D621490063500023EB6165
:103EB00023001D33FF3353606846D826FFF746FFC3
:103EC00001277600B221019BFF31013B5A1C11D022
:103ED000B222A7555200A25C581ED2B26254625C54
:103EE0008446002A04D120000193FFF775FFE9E71B
:103EF0006346EBE768460193FFF72FFFA2E7F7B5AC
:103F0000060068463400FFF721FF0027FF22019BCF
:103F1000FC34013B0DD3E0682169884204DBE7688B
:103F20002069D71B3F18F4E72769E1687F1A013F32
:103F3000EFE768460193FFF710FFA3696846002B7F
:103F400052D1FFF703FFB221019B4900013B5A1CEC
:103F50000CD0755C5A1EEDB2002D05D16846019358
:103F6000FFF7FBFE2800FEBD1300F0E76846019353
:103F70000025FFF7F2FEFF22236EBD4214D0616ED2
:103F8000994211D9591CF3182166FF33587FE36811
:103F900021690133C0B213408B4203D0E16871182C
:103FA0000872E3600135E7E7626E9A42DAD10023D6
:103FB00023660133A3616846B224FFF7C7FE64009D
:103FC000B2220021019BFF32013B581CC6D0315563
:103FD000B05C5F1E002805D0B15430000193FFF79C
:103FE000FBFEEDE73B00F0E7FFF7B0FED821019BB9
:103FF0004900013B5A1C06D0755C5A1EEDB2002DDB
:10400000ACD01300F6E768460193FFF7A6FED6236F
:10401000D4225B0000259C465200B358BD4203D019
:1040200061467158994220D86246B2589A4299D155
:10403000D42200235200B3506846A361D824FFF76E
:1040400085FE6400B2220021019BFF32013B581C17
:1040500000D183E73155B05C5F1E002819D0B15400
:1040600030000193FFF7B8FEECE7591CB150FF2177
:10407000F3186933FF331878E368C0B201330B409B
:1040800021698B4203D0E16871180872E360013541
:10409000C3E73B00DBE710B50400FFF730FF230068
:1040A000FC331969DA68914203D01B69E418207A5D
:1040B00010BD01204042FBE710B50400FC34FFF7BF
:1040C0001EFFE0682369C01A01D50130FF3010BD22
:1040D000F0B585B0019200910500FFF710FF02A82E
:1040E000FFF734FE01200024FF26039B40425A1EA6
:1040F000531C1FD02B00FC3301998C4218D2D96875
:104100001F69C91B01D50131FF31002910D0196980
:10411000DF688C460100BC4506D019691F69691823
:1041200001373740097A1F61009F39550134E3E7B1
:10413000013ADDE702A80392FFF70FFE200005B069
:10414000F0BD37B56B46DC1D00230D002370FFF773
:1041500081FD2100FFF7FEFC2B68181828602078ED
:104160003EBD00002023F7B5474A0500D1690F2066
:104170000B43D361012245490B7813430B70444B29
:1041800019788143197006211C782143197041491F
:104190000C7822430A701A7802401A70602219784B
:1041A0000A431A703C4B3D4A5A805F78FF09FCD1A4
:1041B0003B48FEF7C5FA01233A4C3B4E22683000DB
:1041C00011780B43137080223900520000F02BFE4F
:1041D00022689378DB07FCD456621F26334B1B689A
:1041E000590B980C9B01314030405B0FB14200D11C
:1041F00005211F2800D10238072B00D1043B314094
:104200008901178D01912A4930400F4001993943A6
:104210001185118D0700B143080038431085118DB9
:104220001803244B7F260B4003430C2013850823DF
:10423000D17881430B430321D3702268D3788B4319
:1042400001390B43D3702268137833401370042371
:1042500022681678334313702268C1241389A4009E
:1042600083431548138103591B021B0A0351802302
:104270000360137811481943012311702B7000213A
:10428000FFF75CFCF7BDC046000400405844004105
:104290003C44004159440041000C004006400000ED
:1042A000114C0000340C0020380C002024608000E9
:1042B0003FF8FFFFFF8FFFFF00E100E01407002041
:1042C0000078002810D00121084B1B681A898A4306
:1042D0001A810822198B0A431A830422198B0A4374
:1042E0001A830022024B1A607047C046340C00202B
:1042F0002C0C002010B50F4A93699B0B9B03936114
:1043000013680222FF331A729879823A02439A7133
:104310001A7A9207FCD57F24074A2140937A080035
:10432000A3431900802301439172917A5B420B43AE
:10433000937210BD340C00200050004110B50C00E9
:10434000FFF788FC2100FFF73CFC002804D1034A5A
:1043500093699B0B9B03936110BDC046340C0020F6
:10436000F7B50D00832A19D1CBB2404C5A01A218DF
:1043700091693F48AD010840C02189050143916121
:104380003C4920686D187021083355615B011A5C47
:104390008A43110040220A431A54F7BD022A5FD112
:1043A000354B8A00D058002802D003685B699847D3
:1043B000DA20400000F03CFC802204002B4E2F4B02
:1043C0004660036052000021083000F02CFD2200FE
:1043D000B2210023FC324900D3605561136113669A
:1043E0009361D36153666354443163500431635025
:1043F00004316354B221FF316354FF202B0003408A
:104400005901019371188F68194BAD003B40C027CB
:10441000BF051F438F600727019B366808335B0188
:10442000995DB9430F000321394399552300516920
:10443000666801401D334901FF3371184B606368A2
:1044400052691B68024052019B1801221B18997A7D
:1044500020000A439A72FFF7BFFC074BEC509CE721
:1044600011002800FFF710FC97E7C046340C00202D
:10447000FFFFFF8FA807002080070020785500006D
:1044800070B505000124064BA200D258002A06D0C0
:10449000210028000134FFF763FF0A2CF3D170BD1F
:1044A000540700200B4BCAB20B488901C9185301AD
:1044B000C318596199690832890B890399610368A6
:1044C00052019A180223D3715179823B0B435371E5
:1044D0007047C046A8070020340C0020084B8A0013
:1044E000D05810B5002803D003689B68984710BDCA
:1044F000C9B2044B4901591888688004800CF6E75A
:1045000080070020340C002010B50C00FFF7E6FFF8
:1045100000280CD0064BE4B21B68083464011C1957
:10452000802362795B42134363710223E37110BD00
:10453000340C0020F0B51C002A4B85B01B68070026
:104540000D000292002B4AD0274B8A00D058002839
:1045500008D0036822005B68029998470400200095
:1045600005B0F0BD3800FFF7B9FF844204D9290037
:104570003800FFF7B3FF04000121EBB21B4E039399
:104580005B010193F21893689B0B9B039360019A64
:10459000336802989B18FF335A7A0A435A72144BB5
:1045A000A901C918220000F035FC002CD7D0290041
:1045B0003800FFF793FF0028D1D14021039B3268D8
:1045C00008335B01D3181879014319710121D9719E
:1045D000019BD318FF339A7A0A439A72BFE70124EA
:1045E0006442BCE72C0C002080070020340C002023
:1045F0006809002013B56B46DC1D22000123FFF77C
:1046000099FF012801D1207816BD01204042FBE727
:1046100070B5CBB2124A13485C018901891802199E
:1046200051609168104D08330D40802149032943A2
:10463000402591609168890B8903916001685A0156
:104640008A1816793543157195796D06FCD55B018D
:10465000C918CB79DB07FCD500198068C0B270BDE2
:1046600068090020340C0020FF3F00F070B50D00F9
:1046700000211400FFF7CCFFA04200D92000002346
:104680000349A34203D0CA5CEA540133F9E770BD81
:1046900068090020F0B51E003A4B85B01B680F007A
:1046A0000192002B35D08023DB019E4231D80025BA
:1046B000354B8A01D3180293002E2CD0334B1B6844
:1046C0000393FF233B401C0000930834039B6401C9
:1046D0001C19A379DB0921D02D4B2E49186800F055
:1046E000B9FA2D4B1721584300F0B4FA2B4BE2795D
:1046F000920713D4DA5D002A01D10138F7D20122E2
:10470000DA55009B5A01214B9B189A69920B920330
:104710009A6101256D42280005B0F0BD00221F4BB3
:104720003400DA553F2E09D9009B40245A01174B1B
:104730009B188022996912060A439A612200019906
:10474000029800F067FB009BA1045A010F4B890CF3
:104750009B18029A2D195A619A69361B920B920383
:104760000A439A61009B039A08335B01D318022223
:10477000DA715979823A0A435A71019B1B190193E4
:104780009AE7C0462C0C0020A8070020340C00201B
:104790000000002040420F00701101009D07002022
:1047A00070B50D001C000D4BAE01F6181100300065
:1047B000220000F02FFBEDB209496D014D196E6129
:1047C000AB69084A20001340AB61AB69A2049B0BA4
:1047D000920C9B031343AB6170BDC046A807002039
:1047E000340C0020FF3F00F0F7B5104B01901B7810
:1047F0000F001500002B0CD10D4B16001C78002C5F
:1048000009D00C4E0C4834882018641900F002FBC3
:1048100034802800FEBD002EFBD03A193300002161
:104820000198FFF7BDFF2418361AF4E7280B002083
:10483000290C00202A0C0020290B0020F8B50F00BD
:1048400016000024012A26D9100000F0BDFA050048
:10485000380000F0ABFB0323022201304000287037
:104860006B7096420DD9397800290AD0531CDBB2FF
:104870000137A9549E4203D00232EC54D2B2F0E781
:10488000320029000548FFF7AFFF441EA041C4B223
:10489000280000F0A3FA2000F8BDC0467C070020E5
:1048A000F0B50024012685B0184B0F0069461E7034
:1048B00005000094FFF745FC154B01A90B806A3BEE
:1048C000FF3BCB715A330B72009B8C7109334B80C9
:1048D0000E4B4E7108711C703A00092F0FD00D4F0E
:1048E00009223E700C4E280000943480FFF77CFFB4
:1048F00069462800FFF725FC328808493C702800EB
:10490000FFF772FF012005B0F0BDC046280B002064
:1049100009020000290C00202A0C0020290B00208D
:1049200070B5CE7892B005000C00022E0BD18B79B9
:10493000C9792E4809021943FFF7B2FF411E884189
:10494000C0B212B070BDFFF785F92100FFF716F96C
:10495000002803D0C117081AC00FF2E7012E0ED1AC
:10496000E279A37912021A432149112A3CD8D2B222
:10497000002A39D02800FFF737FF0120E1E7032E96
:10498000DFD1A378002B28D0022B08D1E279A379BC
:10499000120218491A432800FFF750FFD1E7012BF4
:1049A00005D1E279A37912021A431349F3E7032BE5
:1049B000C7D10100412201A800F035FAFFF74AF9FA
:1049C00001A9FFF7EBF8002805D0E279A3791202DC
:1049D0001A4301A9DFE70378FFDEE279A379120227
:1049E0001A430649032AC2D90A78C3E77C07002084
:1049F000BA55000094550000AE550000AA550000BD
:104A0000CBB204495B01C9188B699B0B9B038B617B
:104A10007047C046340C002037B5050048780C00BC
:104A20000B2810D800F00CF9061B0F2B0F40456126
:104A3000494C5A5D097801AA002906D10223118048
:104A40002800FFF7ADFE01203EBD00231380284B58
:104A50001B78012B00D1137002230021F0E78A7824
:104A60000023012A03D101AA1380224BF0E7204A38
:104A70001370214A93699B0B9B039361E3E78C7846
:104A8000012C06D100211B4B01AA1C7011702300C0
:104A9000D6E70120002CD7D1154B174A187093691F
:104AA0009B0B9B039361CFE789782800FFF722FCDB
:104AB000C9E72800FFF734FFC6E701230F4ACCE718
:104AC0000B780020DB06BFD12800FFF7D9FCA278C5
:104AD0000A4B0B481A60FFF719F8CAE70123094A85
:104AE000BBE78A78074B1A60C3E70020ACE7C046F3
:104AF0009C070020A4070020340C00202C0C002070
:104B000014070020300C00203B4BF7B51E78050041
:104B1000002E5FD1394C23689A8B12070DD50822DD
:104B200031009A833000FFF7AFF810222368FF337B
:104B3000997A0A439A72324B1E6023689A8B520705
:104B400001D504229A83FF331A7A920603D52022D4
:104B5000597A0A435A721A7AD20623D5694608004E
:104B6000284AC0CAC0C0A268920B9203A260402229
:104B7000587902435A7160230A7828001A422AD1D0
:104B8000FFF74AFF2368FF33002827D08022997956
:104B900052420A439A711A7A520603D54022597A30
:104BA0000A435A727F2601252368FF331E722F00A5
:104BB000236808377F01DB19DB79002B07D0124B04
:104BC000AA00D05800280DD003681B68984701350B
:104BD000082DECD1F7BDFFF7B1FBD3E720210B4A3D
:104BE0009171D8E7FFF736F82900FEF7FAFF23683E
:104BF000DF19FE71EBE7C046290C0020340C0020C1
:104C00002C0C00206809002080070020FF50004184
:104C100010B50248FFF778FF10BDC0467C070020A2
:104C2000014B024A1A607047340C002000500041CA
:104C300010B500F0C9F810BD10B500F0CFF810BDE8
:104C400002B4714649084900095C49008E4402BC1F
:104C50007047C046002243088B4274D303098B423D
:104C60005FD3030A8B4244D3030B8B4228D3030C3C
:104C70008B420DD3FF22090212BA030C8B4202D3DE
:104C80001212090265D0030B8B4219D300E0090A06
:104C9000C30B8B4201D3CB03C01A5241830B8B420F
:104CA00001D38B03C01A5241430B8B4201D34B03F8
:104CB000C01A5241030B8B4201D30B03C01A52415D
:104CC000C30A8B4201D3CB02C01A5241830A8B42E2
:104CD00001D38B02C01A5241430A8B4201D34B02CB
:104CE000C01A5241030A8B4201D30B02C01A52412F
:104CF000CDD2C3098B4201D3CB01C01A52418309E3
:104D00008B4201D38B01C01A524143098B4201D31C
:104D10004B01C01A524103098B4201D30B01C01A47
:104D20005241C3088B4201D3CB00C01A52418308C1
:104D30008B4201D38B00C01A524143088B4201D3EE
:104D40004B00C01A5241411A00D20146524110464E
:104D50007047FFE701B5002000F006F802BDC0462D
:104D60000029F7D076E770477047C04610B50A2291
:104D7000002100F0A5F910BD70B500260C4D0D4CBA
:104D8000641BA410A64209D1002600F0C9F90A4DFF
:104D90000A4C641BA410A64205D170BDB300EB58A9
:104DA00098470136EEE7B300EB5898470136F2E733
:104DB000F0010020F0010020F0010020040200209A
:104DC000EC3000687047000010B5034B0100186814
:104DD00000F07CF810BDC0462000002010B5034B49
:104DE0000100186800F028F810BDC046200000201F
:104DF00082B0002900D101A9101E06D0002B06D0D8
:104E000013780B601078431E984102B0704702205F
:104E10004042FAE7002310B59A4200D110BDCC5CA5
:104E2000C4540133F8E703001218934200D17047CD
:104E300019700133F9E7000070B50500002910D0A2
:104E40000C1F2368002B00DAE418280000F058F942
:104E50001D4A1368002B05D163601460280000F020
:104E600050F970BDA34209D9216860188342F3D17B
:104E700018685B6841182160EEE713005A68002A41
:104E800001D0A242F9D919685818A0420BD1206864
:104E90000918581819608242E0D110685268411808
:104EA00019605A60DAE7A04202D90C232B60D5E7DB
:104EB00021686018824203D110685268411821604D
:104EC00062605C60CAE7C046380D0020032370B5FD
:104ED000CD1C9D43083506000C2D1ED20C25A94281
:104EE0001DD8300000F00CF9254A14682100002973
:104EF00019D1244C2368002B03D1300000F044F872
:104F000020602900300000F03FF8431C2BD10C2317
:104F10003000336000F0F5F803E0002DDFDA0C23F9
:104F20003360002070BD0B685B1B19D40B2B03D9B9
:104F30000B60CC18256003E04B688C420DD11360E8
:104F4000300000F0DEF8200007220B30231D9043D4
:104F5000C31AE7D05A42E250E4E763600C00EFE77F
:104F60000C004968C3E70323C41C9C43A042E1D062
:104F7000211A300000F008F8431CDBD1C7E7C04617
:104F8000380D00203C0D0020002370B5064C0500B4
:104F90000800236000F0B6F8431C03D12368002BFF
:104FA00000D02B6070BDC046440D00200023C25CC1
:104FB0000133002AFBD1581E70470000F0B51F00D6
:104FC0000E0087B00590019102920C983478FFF79B
:104FD000F7FE082200194378751C134036D12D2C9A
:104FE00036D1B51C74780126002F62D0102F09D15C
:104FF000302C07D120222B789343582B54D11027E3
:105000006C7802352D4B3900F31818000393FFF725
:10501000A7FE049101210023494202008C4618009A
:105020002100303909291AD80C00A74223DD591C68
:1050300009D06346824206D302D10499A14202DB21
:105040000123784320182C780135E9E72E00BCE7CE
:105050002B2C01D01E00C7E7B51C7478FAE721009D
:105060004139192901D8373CDFE721006139192975
:1050700001D8573CD9E75A1C08D1059A233313604D
:10508000029B0398002B09D107B0F0BD002E00D081
:105090004042029A002AF7D0002B01D06B1E0193E8
:1050A000029B019A1A60EFE73024002FAAD108274B
:1050B000A8E7302C9ED00A27A4E7C046FFFFFF7F59
:1050C00037B51300064A05001068046A002C00D1A9
:1050D000044C0A0000942900FFF770FF3EBDC04653
:1050E00020000020840000200B1E04D0FF2A04D9D9
:1050F0008A2303608B3B180070470A700123FAE78C
:1051000070477047044A1368002B00D1034B1818EE
:10511000106018007047C046400D0020480D002068
:10512000F8B5C046F8BC08BC9E467047F8B5C04606
:10513000F8BC08BC9E4670477C006C6F6C00564DF6
:105140004450565F317C315F564D4450560A0056EC
:105150004D4450525F007374617274696E670056FB
:105160004D4450435F005F564D445043005F564DE1
:1051700044504500564D4450455F003A323A0000D5
:105180000000000016000000080000001C000000E5
:10519000FF000004000406000000000017000000EB
:1051A000080000001C000000FF00010401040700CB
:1051B000000000000A000000080000001C000000C1
:1051C000120000010001FF00000000000B000000C1
:1051D000080000001C000000130001010101FF0095
:1051E000010000000A000000080000001C00000090
:1051F000FF00000500050A00010000000B00000090
:10520000080000001C000000FF00010501050B0064
:105210000000000014000000080000002C00000046
:10522000FF00020002000400000000001500000062
:10523000080000002C000000FF0003000300050030
:105240000000000010000000020000001C00000030
:10525000FF0000020002000000000000110000003A
:105260000200000004000000FF00FFFFFFFF01003C
:105270000000000013000000020000001C000000FD
:10528000FF0001030103FF00000000000800000010
:1052900003000000040000001000FFFFFFFF1000EB
:1052A00000000000090000000300000004000000EE
:1052B0001100FFFFFFFFFF000100000017000000CA
:1052C0000300000004000000FF00FFFFFFFFFF00DD
:1052D00001000000160000000300000004000000B0
:1052E000FF00FFFFFFFFFF000000000002000000C2
:1052F00001000000060000000000FFFFFFFFFF00AC
:105300000100000002000000010000000400000095
:105310000A00FFFFFFFF0200010000000300000081
:1053200001000000040000000B00FFFFFFFF03006E
:105330000000000004000000010000001C0000004C
:10534000040000000000FF00000000000500000055
:10535000010000001C000000050001000100FF002A
:105360000000000006000000010000000400000032
:105370000600FFFFFFFFFF00000000000700000025
:1053800001000000040000000700FFFFFFFFFF0016
:1053900000000000180000000600000000000000EF
:1053A000FF00FFFFFFFFFF000000000019000000EA
:1053B0000600000000000000FF00FFFFFFFFFF00ED
:1053C00000000000120000000800000004000000BF
:1053D000FF00FFFFFFFFFF000000000003000000D0
:1053E0000800000004000000FF00FFFFFFFFFF00B7
:1053F000000000000C00000003000000000000009E
:10540000FF00FFFFFFFFFF00000000000D00000095
:105410000300000000000000FF00FFFFFFFFFF008F
:10542000000000000E000000080000000000000066
:10543000FF00FFFFFFFFFF00000000000F00000063
:105440000300000000000000FF00FFFFFFFFFF005F
:10545000000000001B000000080000000000000029
:10546000FF00FFFFFFFF0F00010000000800000029
:1054700008000000060000000200FFFFFFFFFF0021
:1054800001000000090000000100000018000000F9
:1054900003000104010409000000000000000000F6
:1054A0000800000000000000FF00FFFFFFFFFF00FA
:1054B00000000000010000000800000000000000E3
:1054C000FF00FFFFFFFFFF00000000001C000000C6
:1054D0000800000004000000FF00FFFFFFFFFF00C6
:1054E0000D0A000000000000000000009D360000D2
:1054F000992D0000C33500007F350000993500006C
:1055000051370000D9320000C93200005D3300007D
:10551000F3320000C532000000000000000000006F
:105520001F380000553A00001B380000393A0000CF
:10553000193A0000913A0000753A0000473A00001D
:10554000353800009D37000061390000C537000084
:1055500019380000F0FFFFFF00000000093A0000CA
:1055600051390000B73A0000B53A00000938000090
:105570000000000000000000153E0000D1400000C7
:10558000B940000097400000793C00007B3C0000DF
:10559000693D000041726475696E6F204D4B522069
:1055A00057694669203130313000040309044172E3
:1055B0006475696E6F204C4C430012010002EF02CB
:1055C000014041235480000101020301504F53491F
:1055D00058002E00002020202020202020202828D5
:1055E00028282820202020202020202020202020A3
:1055F00020202020208810101010101010101010E3
:105600001010101010040404040404040404041012
:1056100010101010101041414141414101010101A0
:10562000010101010101010101010101010101016A
:105630001010101010104242424242420202020276
:10564000020202020202020202020202020202023A
:1056500010101010200000000000000000000000EA
:10566000000000000000000000000000000000003A
:10567000000000000000000000000000000000002A
:10568000000000000000000000000000000000001A
:10569000000000000000000000000000000000000A
:1056A00000000000000000000000000000000000FA
:1056B00000000000000000000000000000000000EA
:1056C00000000000000000000000000000000000DA
:0C56D000000000000000000000000000CE
:1056DC0040420F000A0000000A000000FFFFFFFF1D
:1056EC00FFFFFFFF00C2010000000800FFFFFFFFEB
:1056FC00240000200000000000000000000000005A
:10570C00000000000000000000000000000000008D
:10571C00000000000000000000000000000000007D
:10572C00000000000000000000000000000000006D
:10573C00000000000000000000000000000000005D
:10574C00000000000000000000000000000000004D
:10575C0000000000430000000000000000000000FA
:10576C00000000000000000000000000000000002D
:10577C0000000000430000000000000000000000DA
:10578C00000000000000000000000000000000000D
:10579C0000000000430000000000000000000000BA
:1057AC0000000000000000000000000000000000ED
:1057BC00000000004300000000000000000000009A
:1057CC0000000000000000000000000000000000CD
:1057DC00000000004300000000000000000000007A
:1057EC0000000000000000000000000000000000AD
:1057FC00000000004300000000000000000000005A
:10580C00000000000000000000000000000000008C
:10581C000000000043000000000000000000000039
:10582C00000000000000000000000000000000006C
:10583C0000000000E9500000F14D000000000000E5
:10584C00D4550000D2550000E2540000E254000090
:10585C00E2540000E2540000E2540000E254000064
:10586C00E2540000E2540000E2540000FFFFFFFF8E
:10587C00FFFFFFFFFFFFFFFFFFFF00000100415391
:10588C004349490000000000000000000000000037
:10589C000000000000000000000000000000415368
:1058AC004349490000000000000000000000000017
:1058BC0000000000000000000000000000000000DC
:1058CC00DD200000B123000025260000413B000034
:1058DC00214C0000B520000000000000000000007A
:04000003000026DDF6
:00000001FF
