:1020000000800020552700003D2700003D270000EC
:1020100000000000000000000000000000000000C0
:102020000000000000000000000000003D2700004C
:1020300000000000000000003D270000A92700006C
:102040003D2700003D2700003D2700003D27000000
:102050003D2700003D2700003D27000041270000EC
:102060003D2700003D2700003D2700003D270000E0
:102070003D2700008D2600007D2600003D27000042
:102080003D2700003D2700003D2700003D270000C0
:10209000000000003D2700003D2700003D27000014
:1020A0003D2700003D2700003D2700003D270000A0
:1020B0000000000010B5064C2378002B07D1054B1B
:1020C000002B02D0044800E000BF0123237010BDA4
:1020D0003002002000000000FC850000044B10B519
:1020E000002B03D00349044800E000BF10BDC046E8
:1020F0000000000034020020FC85000070B5234C75
:102100002349200000F066F9E1212000490200F097
:1021100053F90121200000F039F91E4D00280AD0A2
:102120001D49280000F087FF20000A2100F0E3F895
:10213000200000F040F900212000012200F00EFAFA
:102140000121200000F022F9002806D013492800C0
:1021500000F071FF200000F02EF92800104900F077
:1021600077FF0121062000F045FE0121002000F04C
:1021700041FE0121022000F03DFE0121102000F06F
:1021800039FE0121112000F035FE70BD54020020FF
:10219000B80B00003C0700203A7E00004B7E000098
:1021A000527E000070B500F00DFB002837D0434C84
:1021B000200000F0A5F8424B1860424B1A6890428C
:1021C00064D31A68821AF92A2DD9FA2118604900B5
:1021D000200000F079F90121200000F0D7F8002854
:1021E00015D00121200000F08FF8374D3749280025
:1021F00000F021FF00F0E6FA0A220100280000F0BA
:1022000055FF200000F0B8F8200000F0D4F82000BE
:10221000052100F070F8200000F064F903E000F000
:10222000D1FA0128C3D800F0CDFA142103F0CCFF75
:1022300005F0CCFB02F02AFE0022254B04F078F9D1
:102240000022244B04F098FD0022002304F066F9DC
:1022500000281DD000F0B6FA142103F0B5FF05F0F8
:10226000B5FB02F013FE0022194B04F061F90022C5
:10227000184B04F081FD0022174B04F059F905F0CA
:1022800035FB0100102000F0CBFC70BD186098E712
:1022900000F098FA142103F097FF05F097FB02F085
:1022A000F5FD00220A4B04F043F90022094B04F02B
:1022B00063FD0022084B04F0D1FFE0E75402002048
:1022C0004C020020500200203C070020387E000015
:1022D0000000F03F00F87F400000E03F70B50C00C8
:1022E00000F070FA0500241800F06CFA854201D85D
:1022F0008442F9D270BD10B50122FFF7EFFF10BD87
:1023000010B500F05FFA10BDF8B506000F0000F040
:1023100059FA0500144C1549200000F08CFE0A22E1
:102320003900200000F0CEFE1149200000F083FEAD
:1023300029000A22200000F0B9FE0E4F20003900CB
:1023400000F079FEB3680A22E91A200000F0AEFE20
:102350003900200000F06FFEB168F3680A22C91A44
:10236000200000F0A3FEF8BD3C070020707E0000B6
:10237000777E0000797E000010B50249024800F027
:1023800067FE10BD697E00003C07002010B5040008
:1023900000290BD100F016FA6368C01A632805D82B
:1023A00064210122091A2000FFF798FF00F00AFAC1
:1023B0006060012010BD7047FA2010B50C0080004D
:1023C00000F036FA2100024801F0DEFC10BDC046E4
:1023D0003C070020002310B543644360994201D0BC
:1023E000FFF789FF10BD000070B505000E0000F07A
:1023F000E9F90A4C68600A49200000F01CFE0A2234
:102400003100200000F05EFE0649200000F020FEB2
:1024100028003221FFF76FFF70BDC0463C07002047
:102420005B7E0000627E00000022034B9A60DA604F
:102430001A615A617047C0465402002010B5024824
:1024400001F04CFCC0B210BD3C07002073B51D4C20
:102450000600200001F034FCC0B2642830D1300006
:10246000FFF7ECFF200001F039FC0025C3B201A802
:102470003A2B07D04355200001F030FC0135EDB276
:10248000C3B2F4E705F0F2FA0500200001F026FCE3
:10249000C1B23039012902D8280000F0F7FC200031
:1024A00001F01CFCC0B20A2801D00D28F7D1200091
:1024B00001F006FCC0B20A2802D13000FFF7BEFFCF
:1024C00073BDC0463C070020002310B543618368FC
:1024D0000161C360040000F075F9A0602000FFF7FF
:1024E000B5FF10BD10B50400FFF7B0FF00F06AF9AA
:1024F000A06010BDF7B50191037E05006320002B9D
:1025000008D0154EFF27300001F0ACFBC0B2002808
:1025100001D16520FEBD300001F0A4FBC0B200284F
:10252000F7D0300001F0DAFB04003C40682C08D002
:1025300009DC582C0DD0632CEDD101992800FFF750
:1025400053FF6320E6E7712CFBD0762CE3D1C0B2B9
:10255000E0E700232B76F4E73C07002070B5040089
:10256000150000290CD00123037600212000FFF77D
:10257000C1FF632804D001212000FFF7BCFEF4E76F
:10258000257670BD70B50121202000F033FC0021BC
:10259000202000F07BFC0A2000F04AF900212020D6
:1025A00000F028FC642000F043F9202000F0CCFA71
:1025B000962305009B002F4C984222D92E492000DB
:1025C00000F07CFF200000F065FE03210B2000F0EE
:1025D00089FC03210C2000F085FC00226B212000E7
:1025E00000F08EFE0121200000F0CCFE1B21200017
:1025F00000F0C8FE2000032100F06CFE200000F077
:102600005EFE1D49200000F059FF200000F042FE50
:1026100003210B2000F066FC03210C2000F062FC7B
:1026200000226B21200000F06BFE0721200000F04B
:10263000A9FE96232B219B009D4200D92039200022
:1026400000F0A0FE0321200000F044FE200000F076
:1026500036FE01211E2000F0CDFB01211E2000F0DE
:1026600015FC01211F2000F0C5FB01211F2000F0F7
:102670000DFC70BD1C070020A086010010B50248AB
:1026800001F0CBF810BDC0469C02002010B50248F6
:1026900001F0C3F810BDC046D80400207FB5194929
:1026A000194800F061FD1949194800F05DFD19490C
:1026B000194800F059FD1949194800F055FD194C09
:1026C0001949200000F050FD184E1949300000F063
:1026D0004BFD012503233100019500930D220B339F
:1026E000144801F02FF81D230393013B02931A3B7A
:1026F0000193009518331B2221000F4800F0DEFFE4
:102700007FBDC0460008004214070020000C0042B4
:1027100018070020001000421C070020001400428F
:10272000200700202407002000180042280700206E
:10273000001C00429C020020D8040020FEE700009C
:10274000034B10B51B68002B00D0984710BDC04646
:102750002C07002070B50F490F4CA14204D100F0A6
:102760008FF800F01FFCFEE70C4D00238D42F6D0E1
:10277000CA18E818A24205D3094B8242EFD0094992
:10278000002204E0006804331060F1E704C38B42C8
:10279000FCD3E4E7000000203002002000860000A7
:1027A00030020020700D002010B500F066F80028FF
:1027B00001D100F057F810BD014B18607047C046BA
:1027C0002C070020014B18687047C04630070020D6
:1027D000F7B51348012284461249134C8E6863688A
:1027E00005689B0E1340019288686268019F920EF3
:1027F0003A4067463F6893420ED1BD420CD18642B3
:102800000AD35B19FA254868AD00861B07486B435D
:102810007043000DC018FEBD3D0013000600E3E745
:102820003007002010E000E000ED00E0555500000A
:1028300070B5041E10D0FFF7CBFF050000F01CF8A8
:10284000FFF7C6FF054B401B9842F7D9FA23013C1E
:102850009B00ED18002CF3D170BDC046E7030000CB
:102860007047000010B5034A13680133136000F08D
:102870003FFC10BD3007002070470020704700006B
:102880001E2270B546484749436893431C3A134398
:10289000436008238C6923438B61434C434B9C82E8
:1028A0009C8A14439C82DC681442FCD00124404A78
:1028B00014701578254203D055786DB2002DF8DBE1
:1028C00001249460547864B2002CFBDB394C5460D2
:1028D000547864B2002CFBDB8224E40154805478E9
:1028E00064B2002CFBDB02249C840E34DD6825429C
:1028F000FCD0314CDC621024DD682542FCD09D8C7C
:102900002E4C2C439C841024DD682542FCD00224EC
:102910009D8C80262C439C844024DD683542FCD06D
:10292000DD682542F9D01024DD682542FCD0002462
:102930009460547864B2002CFBDB214C54605478D2
:1029400064B2002CFBDB1C6A1E4D2C4080251C62EF
:102950001C6AAC431C62032393601B4B5360537887
:102960005BB2002BFBDB0023FF240B72174A4B7278
:102970008B72CB72164B1A60164B174A1B68116884
:102980009A065B01C90E2340520F12020B431343F8
:10299000124A1385802342681343436070BDC046CA
:1029A00000400041000400400C0600000008004008
:1029B000000C004001050100B905FF7D040A00007C
:1029C00000070300FFFCFFFF03060100006CDC02B0
:1029D0001800002024608000206080000040004239
:1029E000FA21314B10B51868890003F0EDFB2F4B2D
:1029F0000138984256D82E492E4A4860C020136AA2
:102A000000061B021B0A03431362002407238C6089
:102A10000B608021136A09061B021B0A0B43136219
:102A2000FC22254B196A0A431A62FC22196A920198
:102A30000A431A62A022196AD2020A431A622000CB
:102A40000021013400F0D6F90F2CF8D11B4B1C00EB
:102A50005A7852B2002AFBDB194A5A80194B1A00E5
:102A6000597EC9090129FBD0E421C90099803F2181
:102A7000D970537EDB09012BFBD0C02300205B0102
:102A80001361907000F02EF863785BB2002BFBDBD3
:102A90000D4B0E4A6380D379DB09012BFBD0412318
:102AA000537010BDFEE7C04618000020FFFFFF0076
:102AB00010E000E000ED00E000040040000C0040E9
:102AC0001E4000000040004221400000004800423B
:102AD000914202D002D98A1AD0407047521A9040CF
:102AE000FBE70000164A00B51300517EC909012911
:102AF000FBD00138042816D81969124A0A400F2160
:102B00001A615A788A4303F055FB0308060B030049
:102B1000110001220A435A7000BD11000322F9E797
:102B200011000222F6E7F02311691B050B430F2168
:102B3000136153788B43190002230B435370EBE767
:102B400000400042FFFFFFF010B504000E2800D83F
:102B50000F340121200000F0C5F918231021634330
:102B60002A4CE4186156002901D014290DD1284BB4
:102B70001800DA79D209012AFBD002241A78A2437C
:102B80001A70C379DB09012BFBD022480300427E77
:102B9000D209012AFBD01F2402692140A2430A4323
:102BA00002615A7ED209012AFBD0022219780A4317
:102BB0001A705A7ED209012AFBD00222197B0A43DD
:102BC0001A731A7ED207FCD501221A765A7ED209D0
:102BD000012AFBD00222197B0A431A731A7ED207FC
:102BE000FCD5588B80B25A7ED209012AFBD0022133
:102BF0001A788A431A705A7ED209012AFBD0064BF2
:102C00001A68064B1968FFF763FF10BD7C7E000051
:102C10000048004200400042200000201C0000202C
:102C200018234343F0B56A4A87B09B18DA68060058
:102C30000C000092920722D51B7C5BB2002B01D0C6
:102C4000142B1AD1634B0A2219682000FFF740FFAA
:102C5000614A1300D179C9090129FBD08005800D93
:102C60001081DA79D209012AFBD0022219780A43AD
:102C70001A70DA79D209012AFBD007B0F0BD082713
:102C8000009A544D3A40019200D191E012229B5E8D
:102C90002968200010220193FFF71AFF019B05000D
:102CA0001F126B461C79009B0421DB0600D4052112
:102CB000300000F017F9494BBA00D658484BDA5D9E
:102CC000002A54D10132DA5546490F3202A804F0E5
:102CD00021FF02AA7B009B5A8022D2011A43424B59
:102CE0005A805A78D209012AFBD0022297421BD976
:102CF000338893433380F37BDB09FCD13288403344
:102D000013433380F37BDB09FCD10C34ADB2640098
:102D1000A553F37BDB09FCD13288023313433380A4
:102D2000F37BDB09FCD1A8E7336893432F4A336078
:102D30001300B1681142FCD10222F16B0A43F26325
:102D4000B2681A42FCD11034A40034196560B2682C
:102D50001A42FCD1264A3264B2681A42FCD10222DD
:102D600031680A433260B2681A42FCD185E7022F0B
:102D700007D90C34ADB26400A553F37BDB09FCD159
:102D80007BE70223727913437371184B1A00B16801
:102D90001942FCD11C34A400A551B3681342FCD1E4
:102DA000022331790B433371B3681342FCD164E7DA
:102DB000012100F01FF829683A002000FFF788FE83
:102DC00001997F2800D90121300000F05FF854E715
:102DD0007C7E00002400002000480042000000200B
:102DE00034070020DC810000000C0040FF0F7F0052
:102DF000FFFF0000182330B51D00040045430820E4
:102E0000204A55192856013014D0032912D8080039
:102E10006343D156D31803F0CDF902280E1B58682E
:102E2000CB010221184A9B181A1840321170012256
:102E300082405A6030BD5868CB010621124A9B1867
:102E40001A1840321170012282405A609A61F1E7EB
:102E50005868CB0106210C4A9B181A184032117091
:102E6000012282405A605A61E4E75868CB0102218E
:102E7000054A9B181A1840321170012282409A604C
:102E8000D8E7C0467C7E0000004400411823F0B51E
:102E900008245843114A13181C5701341BD001262B
:102EA00035005F688356BD400D4ADB019A18906873
:102EB00005420BD10C00601E8441D21940321078BB
:102EC00034400336A400B04320431070044A9B18DA
:102ED000002901D15D61F0BD9D61FCE77C7E0000B1
:102EE0000044004118224243F8B52C4E0300B218AA
:102EF000127A52B2140001320ED0481C00240C2861
:102F00000AD803F057F9071F1F1F1F1F1F1F1F0B92
:102F10000B0B0B00012464422000F8BD092905D1E8
:102F200000211800FFF766FF0024F5E70A2901D108
:102F30000839F6E700240B29EED10A391800FFF70B
:102F400059FFE9E718225343F218556801202C0075
:102F5000F356134ADB016E089B18C9B204409E1950
:102F6000002C0DD00F243036327809012240114355
:102F7000C9B25B19317040331A7810431870D3E727
:102F800032000F27303216785B19BE43314311707F
:102F900040331A7810431870BEE7C0467C7E0000AC
:102FA0000044004110B5FFF71BFD04F065FDFFF77D
:102FB000E9FA0120FFF73CFC084C200001F0F8F989
:102FC000200001F0A3FAFFF799F8FFF7EBF8044BA4
:102FD000002BFAD000E000BFF7E7C046A4070020AE
:102FE00000000000F7B506000D000C008B180193DF
:102FF000019B671B9C4207D0336821781B68300017
:10300000984701340028F3D13800FEBD70B50400A4
:1030100008000D0004F04AFE2368020029005B68E6
:103020002000984770BD10B50B1E02D0FFF7EEFFD1
:103030000300180010BD10B5FFF7F5FF10BD00002C
:1030400010B50249FFF7E2FF10BDC046EC81000059
:1030500070B50400FFF7E7FF05002000FFF7F0FF61
:10306000401970BDF0B58BB06B46150000220533DA
:103070000600DA770800012D00D80A2509AC2900DE
:1030800003F028F9CAB2130037330700DBB209296D
:1030900002D813003033DBB2013C2370002FEED195
:1030A00021003000FFF7BFFF0BB0F0BD10B5002AC4
:1030B00004D10368C9B21B68984710BDD2B2FFF7AC
:1030C000D1FFFAE710B5FFF7F1FF10BD10B504000E
:1030D000FFF7C6FB014B1C6010BDC0462800002056
:1030E0000122024B52421A607047C046280000205D
:1030F000164A10B51368591C26D0013B1360002BEB
:1031000022D172B6124B134A0433934213D9124A96
:1031100001211000147D0C42FCD02021148BFF31C2
:103120009B085B0021431183D3610C4B1380012367
:10313000027D1A42FCD0BFF34F8F094B094ADA6077
:10314000BFF34F8FC046FDE710BDC04628000020EA
:1031500000200000030200000040004102A5FFFF24
:1031600000ED00E00400FA05016070479446F0B5F8
:103170009E1E721E96416246056892072F683606AB
:103180003A4332432A60072505AC24780068A4013D
:103190002940214342680024022B00D05C031143E4
:1031A00021434160F0BD30B5C0250368AD031C6804
:1031B00012052A402243C0240904A40221401143DD
:1031C000196003685A6814435C6030BD01230268CB
:1031D00011680B43136003681A68D207FCD4DA69DC
:1031E000D207F9D470470223026811680B431360B9
:1031F0000268D3699B07FCD4704703681A7ED20724
:1032000002D41A7E9207FCD57047002203685A83C5
:1032100070470368187E4007C00F70470368187E28
:10322000C0097047802302685B42117E0B4313760E
:1032300070470368588B8007C00F704702230268ED
:10324000518B0B43538370470368187EC007C00F30
:1032500070470368188DC0B2704703681A7ED207A2
:10326000FCD589B2012019857047012203689A753F
:103270007047012203681A757047012302681168BC
:103280000B43136003681A68D207FCD4DA69D207CB
:10329000F9D470470223026811680B431360036876
:1032A000DA699207FCD430215A8B8A43110010222C
:1032B0000A435A830268D3695B07FCD47047022132
:1032C000026813688B4313600268D3699B07FCD4C0
:1032D00070470000032230B5036811401C68074D99
:1032E0005A6809042A40E4061143640F5960052C0A
:1032F00003D10268D3695B07FCD430BDFFFFFCFF3C
:1033000070B5056804006B8B9B069B0F022B0DD0DC
:103310006B8B00209B069B0F032B32D06B8B9B0784
:1033200004D56B8B9B069B0F012B2AD16B6A49003E
:103330001143DB0AC9B2DB020B436B622368002A2C
:1033400013D11A7ED207FCD55B8B9B069B0F022BF9
:1033500004D0490800222000FFF7D2FF2368588BD1
:103360004007C30F012058400BE0187E8007C00FB4
:10337000F4D11A7ED207F8D5C022596892020A43C6
:103380005A6070BD0368283319700368187EC0073F
:10339000C00F03D15A8BD207F8D57047588B40071E
:1033A000C30F01205840F8E70368214A30B5934223
:1033B0002FD0204A93422FD01F4A93422FD01F4A2A
:1033C00093422FD01E4A93422FD01E4A93421FD1C0
:1033D0000E2319220121032599401B48C0240160B6
:1033E00099082B40AB40FC359D4089000918A4008A
:1033F0000859A843C0259D402B0003430B5180234F
:10340000DB011A43114B5A805A7852B2002AFBDB77
:1034100030BD09231422DDE70A231522DAE70B2346
:103420001622D7E70C231722D4E70D231822D1E761
:1034300000080042000C004200100042001400424C
:1034400000180042001C004200E100E0000C0040B7
:10345000F8B504000F0016001D00FFF7A5FF2000BF
:10346000FFF7B4FE1C21BB000B4071072268090C5A
:103470000B431360842322689375012F1AD1102106
:10348000012E00D008390C4B69431868C00002F0C7
:103490009BFE0722216802408B895203DB04DB0C70
:1034A00013438B81226803049089DB0C400B40039B
:1034B00018439081F8BDC04618000020F8B50400FC
:1034C0000F00FFF771FF2000FFF7D7FE14222368DB
:1034D00079001A600C4B25681E68300002F074FEFB
:1034E0000A490400300002F06FFE7D23FA215843A0
:1034F000C90002F069FEFF23241AE868053C1C405D
:1035000098430443EC60F8BD1800002040420F00CF
:103510000120704710B50368014A1B6A984710BD27
:10352000130400000300FC33D9699A69914203D067
:10353000DB69C018007D704701204042FBE710B5F1
:1035400004000069FFF742FE22000023FC32936171
:10355000D36186229200A4186360A36010BDF0209E
:1035600001403039484248417047F0231B0119405F
:10357000802306209B0099420AD00133FF3301309B
:10358000994205D0802302385B00994200D0002088
:1035900070470F2001400020012903D00239481E46
:1035A0008141481C704700008923F0B5182685B07A
:1035B00002919B000400C05C330008214343324D5C
:1035C0001700EB185956FFF78DFC304B0821E05CD3
:1035D00033004343EB185956FFF784FC2C4BE25C55
:1035E0000393022A09D11133E05CFF2805D008219A
:1035F0004643AE197156FFF775FC8A26B600A05DEA
:10360000FF2819D00121FFF7F5FB1822A35D2149FE
:103610005A43AB56AD18DB0158188B218900605016
:103620001D4901225B188C218900635069688A401A
:103630008D21890062501A600122029B11002069CD
:10364000FFF706FF39002000FFF78FFF3900050064
:103650002000FFF79EFF390006002000FFF77FFFE4
:1036600033000090290020690122FFF77FFD0B4BFA
:103670002069E25C039BE15CFFF795FD2069FFF7A1
:10368000B2FD05B0F0BDC0467C7E00002502000002
:1036900027020000184400411444004126020000A3
:1036A000802210B504005200002104F03CFA2300EF
:1036B0000022FC335A6020009A6010BDF0B585B03E
:1036C0001D000AAB1B78040000930BAB1B7816009F
:1036D00001930CAB1B780F0002930DAB1B78039387
:1036E00000234360FA239B008360124B083303607E
:1036F0001430FFF7D5FF20001D30FF30FFF7D0FF5B
:1037000089236A469B002761E6540B4B1278E554E7
:103710000A4B2000E2546A46094B1279E2546A4689
:10372000127A0133E2546A46127B1033E25405B038
:10373000F0BDC046F0810000250200002602000016
:1037400027020000F7B51D0008AB1B7804000093AA
:1037500009AB1B781600019300234360FA239B00FA
:103760008360114B0F00083303601430FFF798FF9C
:1037700020001D30FF30FFF793FF89236A469B002E
:103780002761E654094B1278E554094B2000E254B6
:103790006A46084B1279E2548A22293BFF3B920089
:1037A000A3541032A354FEBDF08100002502000096
:1037B00026020000270200000300FC3358689B68C3
:1037C000C01A01D50130FF30704710B50400200049
:1037D0001D30FF30FFF7F0FF0028F8D12069FFF718
:1037E0000CFD10BD10B51430FFF7E6FF10BD03004F
:1037F000FC3359689A68914204DB5A689868801AC9
:10380000FF30704798685B68C01A0138F9E710B557
:103810001D30FF30FFF7EBFF10BD10B5040000694D
:10382000FFF707FD002805D02069FFF712FD20698A
:10383000FFF704FD2069FFF7ECFC002820D0206989
:10384000FFF707FD2200FC329369D1690133DBB237
:103850008B4203D091696118087593618A239B009C
:10386000E35CFF2B0CD020001430FFF7C0FF0928C9
:1038700006DC8B238D229B009200E358A2581A602D
:103880002069FFF7E1FC00281AD020001D30FF302E
:10389000FFF792FF002822D086239B00E318996847
:1038A0005A68914218D08E219A684900A218515C3A
:1038B0009A680132D2B29A60C9B22069FFF7CDFC92
:1038C0002069FFF7ABFC002805D02069FFF7AAFCB0
:1038D0002069FFF79AFC10BD01214942ECE72069FD
:1038E000FFF7C7FCECE7000070B5040000690D00AD
:1038F000FFF7AAFC00283ED1FF2686239B00E31891
:103900005A689968013232408A4223D1EFF310831A
:10391000DB0710D41E4B5B68DB05DB0DEDD0103BE5
:103920005BB2002B10DA0F221340083B9B08194AA8
:103930009B009B181B682069FFF786FC0028DCD0E1
:103940002000FFF76AFFD8E79B08C033124A9B00AC
:103950009B58F0E75A68013216409A68964205D0A3
:103960008E215A684900A21855545E602069FFF7FD
:103970007CFC012070BD20001D30FF30FFF71CFFD4
:103980000028B9D129002069FFF767FCF1E7C0469C
:1039900000ED00E01CED00E000E100E0030070B588
:1039A000FC33D9699A69040091421AD0DA69821805
:1039B000157DDA690132D2B2DA618A239B00E35CB9
:1039C000FF2B0CD020001430FFF711FF0A2806DD72
:1039D0008C238D229B009200E358A2581A60280085
:1039E00070BD01256D42E8E70020704770B50F26D5
:1039F000CB1D013902003240D5B22C000009303411
:103A0000092A00DD07341C70013B8B42F2D170BDE6
:103A100010B50C000B4B1868FFF7E8FF21000A4BAC
:103A200008311868FFF7E2FF2100084B10311868D1
:103A3000FFF7DCFF2100064B18311868FFF7D6FFAF
:103A4000202010BD0CA0800040A0800044A0800079
:103A500048A0800008B4024B9C46103808BC604760
:103A6000113A000070473F20704713B56B4602685B
:103A7000D9710733546819000122A04716BD000010
:103A800070B50A260B7892B06E44023305000B70B5
:103A90003C220021300004F046F8394801AC069081
:103AA000384824210790062020776846364AA174BA
:103AB0002281364A364BA281FD3AFF3A8018C177FF
:103AC000684623390630C17768460730C17702A8B7
:103AD000C1770720F277032608316944C87703A924
:103AE000CE7710212B366E443170092621851F3187
:103AF00069440E700CA9053E0E7033212380022309
:103B000069440B7006360DA90E7022493536A18620
:103B10003B216E44307010A86274E27702703D322F
:103B200069446A440B70137040210022E3702371D2
:103B30006371A37341336B44218719705A702B7DD5
:103B4000C039A370A37263770133DBB2A3776A7DB8
:103B50000B200D0068441543C5773120684403707D
:103B60003A23501C6B441870412302320A436B44C1
:103B70001A7021004222084800F05CFF12B070BDAC
:103B800010010424020605240904000001020000BB
:103B9000080B000007050000A407002008B4024B32
:103BA0009C46103808BC6047813A000070B5027D21
:103BB0000B790C0000259A420BD10B784E78A12B83
:103BC00009D1212E05D107221F49204800F032FFDC
:103BD0000135280070BD212BFBD1202E2BD10722CF
:103BE00019491A4800F068FE174B1A7859780902EB
:103BF00011439A7812041143DA7812060A43962187
:103C0000C9008A421DD1DB79DB071AD4FA20FFF7FD
:103C10005DFA00210D4801F019F80125232ED8D1B5
:103C2000E378A2781B021343094A00210748136076
:103C300001F00CF8CDE7222EEFD18A78024BDA7131
:103C4000D2E7FFF74DFAE4E730000020A407002098
:103C50002C00002008B4024B9C46103808BC60477A
:103C6000AD3B000010B5417D006A013100F05CFD04
:103C7000034B1B6801335A1E9341181810BDC046F0
:103C80003800002010B5417D006A023100F062FD6D
:103C900010BD10B5417D006A023100F029FD10BD54
:103CA00070B50D00417D0400130002312A00006A46
:103CB00000F016FE002801D10123636070BD0000F2
:103CC00010B5054C23685A1C04D103685B699847FA
:103CD00003002060180010BD38000020074A0300D0
:103CE000106810B5411C03D001235B42136010BD66
:103CF000597D186A013100F0A3FDF8E73800002073
:103D00007047002070470000FA239B0010B58360C5
:103D10000F4B0022C3820300283383610D4B040044
:103D20004260C2611800443323610830631D216280
:103D30002060DA778323A362813BE36280332363CD
:103D400000F0AEF82100103100F07EF8200010BD28
:103D50000302000024820000022110B5094B1A68FA
:103D6000437D5B01D318FF339C7A21439972437DD5
:103D70000133DBB25B01D3180122FF33997A0A4386
:103D80009A7210BD5C0C00207047000010B502490B
:103D90000248FFF7B9FF10BDA40700203C07002030
:103DA00070B50E0000254468002C0BD0236831004C
:103DB0005B6820009847002802DB2D18E468F3E7D1
:103DC00001256D42280070BD70B50D004468002CBF
:103DD00008D0236829009B6820009847002802D15A
:103DE000E468F4E7200070BD70B50D00002644685B
:103DF000002C09D02368290020001B699847361839
:103E00002D18F6B2E468F3E730002C7070BD70B581
:103E10000D004468002C08D0236829001B6820008E
:103E20009847002802D1E468F4E7200070BD70B51F
:103E30000D004468002C06D023682000DB682900B0
:103E40009847E468F6E770BDF0B58C7945780300D3
:103E50002A190020072A1FDC5A68824216D15960AD
:103E60001A78C8790A7112184D711A7000220B4D18
:103E7000D0B284420FD98F6858789600F7598600DF
:103E80000130775101325870F2E70200D068002803
:103E9000FBD1D160E4E70120F0BDC0467C070020E3
:103EA0000121064A10B5136805480B4004D180244F
:103EB000640004804360116010BDC046700700209C
:103EC00074070020704710B5040000F0DBFF2000ED
:103ED00010BD0000F0B5822919D1C3B2294D5A0195
:103EE000AA189169284C80010C40C0218905214302
:103EF00091612649083340187021506128685B01A0
:103F00001A5C8A43110030220A431A54F0BD00297A
:103F1000FCD1C026C1B21B4C4B01E3189A681A4D64
:103F2000B6052A4032439A60194A800182185A60C5
:103F30000A000727246808325201115DB9430F00B7
:103F40000121394311559F6910493D4040182E43C6
:103F50009E6158617020115D81430800102101436A
:103F6000115599680B48A218084080214903014364
:103F700099609968890B89039960402311790B43F3
:103F80001371C3E75C0C0020FFFFFF8FD0070020F8
:103F900090090020FF3F00F0EFF31083036001233E
:103FA000436072B670470368002B02D162B6BFF35C
:103FB0006F8F7047F7B50600FC36B3690400002B1D
:103FC00018D1B2277F00C55D6846FFF7E5FF019B6A
:103FD000EDB2013B02D3E55DEDB2FAE7684601932D
:103FE000FFF7E1FF002D01D10020FEBD706E336EA2
:103FF000C01AFAE76846FFF7CFFFD8220025019BD9
:104000005200013B02D3A55CEDB2FAE7684601938A
:10401000FFF7C9FF002DE7D0D6235B00E058043B33
:10402000E358E5E710B54468FC3043690B48DBB260
:104030005A01A218916808330840802149030143BE
:10404000916091685B01890B890391602268D318A4
:10405000402219790A431A7110BDC046FF3F00F093
:10406000F7B50500FC356B694268DBB21900040046
:104070000831106849014118C979C90711D55B0198
:10408000D21893689B049B0C0CD12000FFF7CAFF49
:1040900063681A686B69DBB208335B01D3187F224F
:1040A000DA71F7BDE969002923D16B662300012687
:1040B0006933FF33EE6168465360B227FFF76CFF48
:1040C0007F00B221019BFF31013B5A1C38D0D8221E
:1040D000E6555200A25C581ED2B26254625C84461D
:1040E000002A04D120000193FFF79CFFE9E7634613
:1040F000EBE7D621490063500023EB6123001D3319
:10410000FF3353606846D826FFF746FF0127760045
:10411000B221019BFF31013B5A1C11D0B222A7559D
:104120005200A25C581ED2B26254625C8446002ADD
:1041300004D120000193FFF775FFE9E76346EBE741
:1041400068460193FFF72FFFA2E7F7B50600684620
:104150003400FFF721FF0027FF22019BFC34013BC5
:104160000DD3E0682169884204DBE7682069D71B2A
:104170003F18F4E72769E1687F1A013FEFE76846D7
:104180000193FFF710FFA3696846002B52D1FFF798
:1041900003FFB221019B4900013B5A1C0CD0755C06
:1041A0005A1EEDB2002D05D168460193FFF7FBFEC4
:1041B0002800FEBD1300F0E7684601930025FFF7D5
:1041C000F2FEFF22236EBD4214D0616E994211D9D6
:1041D000591CF3182166FF33587FE36821690133C6
:1041E000C0B213408B4203D0E16871180872E360DB
:1041F0000135E7E7626E9A42DAD100232366013384
:10420000A3616846B224FFF7C7FE6400B222002112
:10421000019BFF32013B581CC6D03155B05C5F1E7C
:10422000002805D0B15430000193FFF7FBFEEDE705
:104230003B00F0E7FFF7B0FED821019B4900013BAE
:104240005A1C06D0755C5A1EEDB2002DACD013007E
:10425000F6E768460193FFF7A6FED623D4225B005B
:1042600000259C465200B358BD4203D061467158A8
:10427000994220D86246B2589A4299D1D42200235A
:104280005200B3506846A361D824FFF785FE64004E
:10429000B2220021019BFF32013B581C00D183E771
:1042A0003155B05C5F1E002819D0B1543000019325
:1042B000FFF7B8FEECE7591CB150FF21F318693342
:1042C000FF331878E368C0B201330B4021698B4299
:1042D00003D0E16871180872E3600135C3E73B0061
:1042E000DBE710B50400FFF730FF2300FC3319694A
:1042F000DA68914203D01B69E418207A10BD0120CE
:104300004042FBE710B50400FC34FFF71EFFE068F5
:104310002369C01A01D50130FF3010BDF0B585B05A
:10432000019200910500FFF710FF02A8FFF734FE8D
:1043300001200024FF26039B40425A1E531C1FD01D
:104340002B00FC3301998C4218D2D9681F69C91B14
:1043500001D50131FF31002910D01969DF688C4681
:104360000100BC4506D019691F696918013737403B
:10437000097A1F61009F39550134E3E7013ADDE70F
:1043800002A80392FFF70FFE200005B0F0BD37B57D
:104390006B46DC1D00230D002370FFF781FD21001B
:1043A000FFF7FEFC2B681818286020783EBD00003F
:1043B0002023F7B5474A0500D1690F200B43D3618D
:1043C000012245490B7813430B70444B1978814304
:1043D000197006211C782143197041490C78224339
:1043E0000A701A7802401A70602219780A431A700B
:1043F0003C4B3D4A5A805F78FF09FCD13B48FEF7B1
:10440000DBF901233A4C3B4E2268300011780B4314
:10441000137080223900520003F085FB22689378E4
:10442000DB07FCD456621F26334B1B68590B980CD4
:104430009B01314030405B0FB14200D105211F2864
:1044400000D10238072B00D1043B31408901178D80
:1044500001912A4930400F40019939431185118D4E
:104460000700B143080038431085118D1803244B11
:104470007F260B4003430C2013850823D17881430A
:104480000B430321D3702268D3788B4301390B434C
:10449000D37022681378334013700423226816788F
:1044A000334313702268C1241389A4008343154841
:1044B000138103591B021B0A0351802303601378E5
:1044C00011481943012311702B700021FFF75CFC88
:1044D000F7BDC04600040040584400413C44004140
:1044E00059440041000C0040064000005D4E0000B1
:1044F0005C0C0020600C0020246080003FF8FFFF6F
:10450000FF8FFFFF00E100E03C070020007800285B
:1045100010D00121084B1B681A898A431A8108228E
:10452000198B0A431A830422198B0A431A83002227
:10453000024B1A607047C0465C0C0020540C0020EF
:1045400010B50F4A93699B0B9B039361136802227A
:10455000FF331A729879823A02439A711A7A920753
:10456000FCD57F24074A2140937A0800A343190011
:10457000802301439172917A5B420B43937210BD89
:104580005C0C00200050004110B50C00FFF788FCC7
:104590002100FFF73CFC002804D1034A93699B0BE0
:1045A0009B03936110BDC0465C0C0020F7B50D0065
:1045B000832A19D1CBB2404C5A01A21891693F48C5
:1045C000AD010840C0218905014391613C49206843
:1045D0006D187021083355615B011A5C8A43110024
:1045E00040220A431A54F7BD022A5FD1354B8A0094
:1045F000D058002802D003685B699847DA20400051
:1046000000F03CFC802204002B4E2F4B46600360E0
:1046100052000021083003F086FA2200B221002364
:10462000FC324900D3605561136113669361D36115
:10463000536663544431635004316350043163540E
:10464000B221FF316354FF202B0003405901019335
:1046500071188F68194BAD003B40C027BF051F4341
:104660008F600727019B366808335B01995DB9436A
:104670000F000321394399552300516966680140B1
:104680001D334901FF3371184B60636852691B6821
:10469000024052019B1801221B18997A20000A43FC
:1046A0009A72FFF7BFFC074BEC509CE71100280003
:1046B000FFF710FC97E7C0465C0C0020FFFFFF8F60
:1046C000D0070020A80700208482000070B50500F4
:1046D0000124064BA200D258002A06D0210028004F
:1046E0000134FFF763FF0A2CF3D170BD7C07002073
:1046F0000B4BCAB20B488901C9185301C318596141
:1047000099690832890B89039961036852019A18E3
:104710000223D3715179823B0B4353717047C046DA
:10472000D00700205C0C0020084B8A00D05810B540
:10473000002803D003689B68984710BDC9B2044B9A
:104740004901591888688004800CF6E7A807002002
:104750005C0C002010B50C00FFF7E6FF00280CD021
:10476000064BE4B21B68083464011C19802362798B
:104770005B42134363710223E37110BD5C0C0020A4
:10478000F0B51C002A4B85B01B6807000D00029293
:10479000002B4AD0274B8A00D058002808D0036845
:1047A00022005B68029998470400200005B0F0BD24
:1047B0003800FFF7B9FF844204D929003800FFF719
:1047C000B3FF04000121EBB21B4E03935B01019385
:1047D000F21893689B0B9B039360019A33680298CD
:1047E0009B18FF335A7A0A435A72144BA901C9180D
:1047F000220003F08FF9002CD7D029003800FFF7F2
:1048000093FF0028D1D14021039B326808335B011C
:10481000D3181879014319710121D971019BD3185B
:10482000FF339A7A0A439A72BFE701246442BCE7D5
:10483000540C0020A80700205C0C002090090020E8
:1048400013B56B46DC1D22000123FFF799FF0128F9
:1048500001D1207816BD01204042FBE770B5CBB2F4
:10486000124A13485C018901891802195160916844
:10487000104D08330D4080214903294340259160A4
:104880009168890B8903916001685A018A18167929
:104890003543157195796D06FCD55B01C918CB7947
:1048A000DB07FCD500198068C0B270BD90090020FC
:1048B0005C0C0020FF3F00F070B50D0000211400DB
:1048C000FFF7CCFFA04200D9200000230349A342F8
:1048D00003D0CA5CEA540133F9E770BD90090020A7
:1048E000F0B51E003A4B85B01B680F000192002BFB
:1048F00035D08023DB019E4231D80025354B8A011B
:10490000D3180293002E2CD0334B1B680393FF2344
:104910003B401C0000930834039B64011C19A379DD
:10492000DB0921D02D4B2E49186801F04DFC2D4B91
:104930001721584301F048FC2B4BE279920713D41E
:10494000DA5D002A01D10138F7D20122DA55009B45
:104950005A01214B9B189A69920B92039A61012587
:104960006D42280005B0F0BD00221F4B3400DA551F
:104970003F2E09D9009B40245A01174B9B188022D7
:10498000996912060A439A6122000199029803F07C
:10499000C1F8009BA1045A010F4B890C9B18029A85
:1049A0002D195A619A69361B920B92030A439A6138
:1049B000009B039A08335B01D3180222DA715979FC
:1049C000823A0A435A71019B1B1901939AE7C04628
:1049D000540C0020D00700205C0C002018000020A0
:1049E00040420F0070110100C507002070B50D0096
:1049F0001C000D4BAE01F61811003000220003F030
:104A000089F8EDB209496D014D196E61AB69084A2B
:104A100020001340AB61AB69A2049B0B920C9B037B
:104A20001343AB6170BDC046D00700205C0C002072
:104A3000FF3F00F0F7B5104B01901B780F001500F9
:104A4000002B0CD10D4B16001C78002C09D00C4EFD
:104A50000C4834882018641903F05CF8348028006E
:104A6000FEBD002EFBD03A19330000210198FFF75C
:104A7000BDFF2418361AF4E7500B0020510C00201B
:104A8000520C0020510B0020F8B50F001600002436
:104A9000012A26D9100003F017F80500380003F0AA
:104AA00005F9032302220130400028706B70964202
:104AB0000DD9397800290AD0531CDBB20137A9542B
:104AC0009E4203D00232EC54D2B2F0E73200290009
:104AD0000548FFF7AFFF441EA041C4B2280002F012
:104AE000FDFF2000F8BDC046A4070020F0B500245B
:104AF000012685B0184B0F0069461E700500009412
:104B0000FFF745FC154B01A90B806A3BFF3BCB71BE
:104B10005A330B72009B8C7109334B800E4B4E71D4
:104B200008711C703A00092F0FD00D4F09223E70FA
:104B30000C4E280000943480FFF77CFF6946280063
:104B4000FFF725FC328808493C702800FFF772FF08
:104B5000012005B0F0BDC046500B00200902000046
:104B6000510C0020520C0020510B002070B5CE7863
:104B700092B005000C00022E0BD18B79C9792E481A
:104B800009021943FFF7B2FF411E8841C0B212B0BB
:104B900070BDFFF785F92100FFF716F9002803D053
:104BA000C117081AC00FF2E7012E0ED1E279A379DE
:104BB00012021A432149112A3CD8D2B2002A39D014
:104BC0002800FFF737FF0120E1E7032EDFD1A378AC
:104BD000002B28D0022B08D1E279A37912021849C0
:104BE0001A432800FFF750FFD1E7012B05D1E279E6
:104BF000A37912021A431349F3E7032BC7D101002B
:104C0000412201A802F08FFFFFF74AF901A9FFF73F
:104C1000EBF8002805D0E279A37912021A4301A922
:104C2000DFE70378FFDEE279A37912021A4306492F
:104C3000032AC2D90A78C3E7A4070020C68200006D
:104C4000A0820000BA820000B6820000CBB2044904
:104C50005B01C9188B699B0B9B038B617047C04636
:104C60005C0C002037B5050048780C000B2810D8E4
:104C700001F0A0FA061B0F2B0F404561494C5A5D0D
:104C8000097801AA002906D1022311802800FFF724
:104C9000ADFE01203EBD00231380284B1B78012B65
:104CA00000D1137002230021F0E78A780023012A43
:104CB00003D101AA1380224BF0E7204A1370214A46
:104CC00093699B0B9B039361E3E78C78012C06D1DE
:104CD00000211B4B01AA1C7011702300D6E7012094
:104CE000002CD7D1154B174A187093699B0B9B0367
:104CF0009361CFE789782800FFF722FCC9E72800F5
:104D0000FFF734FFC6E701230F4ACCE70B780020FA
:104D1000DB06BFD12800FFF7D9FCA2780A4B0B486D
:104D20001A60FFF719F8CAE70123094ABBE78A7836
:104D3000074B1A60C3E70020ACE7C046C407002059
:104D4000CC0700205C0C0020540C00203C07002005
:104D5000580C00203B4BF7B51E780500002E5FD1A4
:104D6000394C23689A8B12070DD5082231009A839B
:104D70003000FFF7AFF810222368FF33997A0A4317
:104D80009A72324B1E6023689A8B520701D5042217
:104D90009A83FF331A7A920603D52022597A0A435E
:104DA0005A721A7AD20623D569460800284AC0CA20
:104DB000C0C0A268920B9203A260402258790243BD
:104DC0005A7160230A7828001A422AD1FFF74AFF55
:104DD0002368FF33002827D08022997952420A4362
:104DE0009A711A7A520603D54022597A0A435A72A6
:104DF0007F2601252368FF331E722F0023680837A2
:104E00007F01DB19DB79002B07D0124BAA00D058A9
:104E100000280DD003681B6898470135082DECD198
:104E2000F7BDFFF7B1FBD3E720210B4A9171D8E71B
:104E3000FFF736F82900FEF7FAFF2368DF19FE7145
:104E4000EBE7C046510C00205C0C0020540C002005
:104E500090090020A8070020FF50004110B502482B
:104E6000FFF778FF10BDC046A4070020014B024A9F
:104E70001A6070475C0C00200050004110B502F031
:104E800023FE10BD10B502F029FE10BD30B5214A39
:104E90004B0087B05B0893421EDD1F4A934205DD3D
:104EA00002000B0002F0DAF907B030BD02AA00F0F0
:104EB00035F803231840049A059B012813D00228D3
:104EC0001DD0002814D00298039900F037FA8023EF
:104ED0001B069C466144E7E7002300220093002361
:104EE00000F0A6FFE0E70298039900F027FADBE75D
:104EF000012402980399009400F09AFFD4E701245A
:104F000002980399009400F093FF80231B069C46AF
:104F10006144C9E7FB21E93FFFFFEF7FF0B54E4653
:104F20004546DE465746E0B5E14B4C008FB0904613
:104F3000894664089C4200DC87E0DE4B9C4222DC10
:104F4000DD4A002900DC92E0DC4B02F087F9DB4B04
:104F500006000F009C4200D17EE1D94AD94B02F0F5
:104F60007DF902000B00414630000A604B603900B9
:104F700002F074F9D34BD24A02F070F9434601258E
:104F80009860D9606BE0D04B9C4200DC8FE0CF4B47
:104F90009C4200DD55E1CE4A231592469A44514683
:104FA0000905631A19001D00040002F09FFC02F0BD
:104FB000D3FC02000B00200029000892099302F0A4
:104FC0004DF90022C34B01F0D7FE0F00060002F09E
:104FD0008DFC02F0C1FC04000D0002000B0030004B
:104FE00039000A940B9502F039F90022B94B01F00F
:104FF000C3FE002200230C900D9101F06BFA0028F3
:1050000000D192E1002300222000290001F062FA81
:10501000434243410133B04A41460192022208A86B
:105020000092524600F0A4FA4B460500002B16DA17
:10503000802243461206944642465B6845426344DA
:105040005360D3686344D36009E00B00020041461B
:105050000A604B600022002300258A60CB60280094
:105060000FB03CBC90469946A246AB46F0BD934B70
:1050700001F05EFA914B06000F009C4200D13DE129
:105080008F4A904B01F054FA02000B004146300069
:105090000A604B60390002F0E1F8894A894B01F05F
:1050A00047FA012543466D429860D960D7E700F082
:1050B00071FF8A4A8A4B06000F0001F05DFE002254
:1050C000884B01F035FA02F011FC050002F044FCB7
:1050D000794A7A4B0490059101F04EFE02000B00D4
:1050E0003000390002F0BAF8754A06000F00049843
:1050F0000599744B01F040FE029003911F2D00DCD6
:10510000C7E0029A039B3000390002F0A7F88346FB
:105110008A4653465B0024155B0DE31A102B6CDDA9
:1051200004980599D322674B520501F025FE020031
:105130000B00300039000292039302F08FF80A004E
:10514000010013000691079202003900300002F0BE
:1051500085F8029A039B02F081F806000F0004987C
:105160000599614A614B01F007FE32003B0002F0F5
:1051700075F8069E079F0B0002003900300002926E
:10518000039302F06BF84B005B0D83468A46E41AEA
:10519000312C32DD04980599B822544B920501F068
:1051A000EBFD03000C000200029303940B00069831
:1051B000079902F053F802000B0006000F00069852
:1051C000079902F04BF8029A039B02F047F8484A0D
:1051D0000290039104980599464B01F0CDFD029A87
:1051E000039B02F03BF802000B00300039000292F2
:1051F000039302F033F883468A465A4653464146A3
:1052000030000A604B60390002F028F8029A039BD4
:1052100002F024F844460B000200A260E3604B4613
:10522000002B00DB1BE75B46236080231B065344F7
:10523000636080231B069C466144A060E1606D4270
:105240000DE70B00020002F009F8434600259860C4
:10525000D9601860596002E7D3221A4B520501F059
:10526000FDFF214A214B0D00040001F0F7FF020071
:105270000B00414620000A604B60290001F0EEFF60
:105280001A4B194A01F0EAFF434601259860D9609C
:10529000E5E602000B003000390001F0DFFF6B1E75
:1052A000154A9B009B5883468A46A342A5D130E706
:1052B000FB21E93F7BD9024000004054FB21F93F2C
:1052C0003163621A61B4D03DFB213941FFFFEF7FAA
:1052D000EAFBFFFF000070415883000083C8C96DDE
:1052E000305FE43F0000E03F7370032E8A19A33B58
:1052F000C14920259A837B39D8820000D3220C4BE8
:10530000520501F015F90B4A0B4B04000D0001F09A
:105310000FF902000B00414620000A604B60290093
:1053200001F09CFF034A044BB9E6032373E6C04631
:1053300061B4D03D7370032E8A19A33BF0B5474684
:10534000CE4680B587B000920193754B4F008146E1
:1053500088467F089F4263DC02F0C8FA002800D12B
:10536000D4E04A4643464846414601F005FD040064
:105370000D006C4A6C4B01F0FFFC6C4A6C4B01F069
:10538000D7F822002B0001F0F7FC6A4A6A4B01F0C3
:1053900065FF22002B0001F0EFFC684A684B01F02A
:1053A000C7F822002B0001F0E7FC664A664B01F0CB
:1053B00055FF22002B0001F0DFFC644A644B01F032
:1053C000B7F822002B0001F0D7FC029003910022D5
:1053D000604B2000290001F0CFFC029A039B0600DD
:1053E0000F002000290001F0C7FC009A019B040077
:1053F0000D004846414601F0BFFC02000B002000B2
:10540000290001F02BFF02000B003000390001F0F1
:1054100025FF02000B0000204F4901F01FFF70E044
:1054200002000B0001F0A8FC04000D003D4A3E4BB9
:1054300001F0A2FC3D4A3E4B01F07AF822002B001D
:1054400001F09AFC3B4A3C4B01F008FF22002B0084
:1054500001F092FC394A3A4B01F06AF822002B0025
:1054600001F08AFC374A384B01F0F8FE22002B008D
:1054700001F082FC354A364B01F05AF82B0022002D
:1054800001F07AFC354B029003919F429FDD344B33
:1054900000229F423DDC334900207B182E49160034
:1054A0001F0001F0DBFE049005910022294B200033
:1054B000290001F061FC32003B0001F0CFFE029AAE
:1054C000039B06000F002000290001F055FC009A04
:1054D000019B04000D004846414601F04DFC0200CE
:1054E0000B002000290001F0B9FE02000B00300083
:1054F000390001F0B3FE02000B000498059901F099
:10550000ADFE07B00CBC90469946F0BD0020124994
:10551000F7E7154B002604920593144FC5E7C046E4
:10552000FFFF3F3ED43888BEE9FAA8BDC4B1B4BD80
:105530009EEE213EAD529C804F7E923E9015CB193F
:10554000A001FA3E7751C1166CC1563F4C555555D6
:105550005555A53F0000E03F0000F03F3233D33FF8
:105560000000E93F0000E0FF0000E73F0000D23FFD
:10557000F0B5DE464E4645465746E0B5DC4CA54400
:105580000D9114001900A49A0993DA4B9200D65891
:105590004D1E03901821E01E0696029500F09EFE17
:1055A000C3430100DB1719404B1C9A009B1ADB0018
:1055B0001B190B9105934C1B771918D4A59BA500BB
:1055C0009C463F1922AE6544013707E0286802F087
:1055D000C3F9013403C60435BC4208D0002CF5DA07
:1055E00000200021013403C60435BC42F6D1069BDD
:1055F000002B01DA00F0FDFB069B03990133DB0071
:105600009A46099BDA00944600920022914672AABB
:105610000492B94A6144934688469AAB63449B44DA
:10562000029B002B00DABCE15D4600260027039CAC
:105630004D442A686B6803CC01F09EFB02000B000E
:105640003000390000F074FF083D06000F004445AB
:10565000EFD1049B4B441E605F6008239C46E144ED
:10566000D145DDD10EA804218446494261448C46CF
:10567000069A93009C44614684460A910399083B2C
:1056800063448C460C93009B009263449B46009AB3
:105690000498D10003008C46634408911E685F683B
:1056A000002A33DD954980468C466244D3009844F5
:1056B00070AB9A460EAB99460022914B30003900F0
:1056C00001F05AFB02F012F902F046F900228D4B6C
:1056D00004000D0001F050FB02000B003000390007
:1056E00001F0BCFD02F002F94B4601C39946434666
:1056F00020001A685B68290000F01AFF08235B424B
:105700009C46E04406000F00D045D5D1059B3000F3
:105710001A003900984600F0DDFCFF2300229B05AB
:1057200004000D0001F028FB00F038FC0022764B4D
:1057300001F022FB02000B002000290001F08EFD89
:105740000D00040002F0D2F8814602F005F90200D3
:105750000B002000290001F081FD060040460F00EB
:10576000002800DCEEE0009B18215A1E92000EABD0
:105770009B58091A1D000D41A9448D405D1B0EABBD
:105780009D5017231B1A1D41002D2DDD01239C4622
:10579000009BE144002B00DC1CE20E9C0123002C4A
:1057A00000D0B5E0009A012A09D099000EAA5458F9
:1057B0000133002C00D0ACE0009A9A42F5D1059B51
:1057C000002B0EDD012B00D1A8E1022B09D1009B9B
:1057D0000EA95A1E92000EAB9B5807939B029B0A80
:1057E0008B50022D00D1C1E000230022300039008F
:1057F00000F070FE009B002800D194E2069A591E2A
:105800008A4210DC414A0A9894460EAA63449446A0
:1058100000229B0063441C68043B22438342FAD16C
:10582000002A00D0C0E0069B0EAA013B9B00D35883
:10583000002B00D0B3E001220C9B043B59680132DD
:105840000029FAD0009B9C466244110007921A007E
:1058500001338B4246DC0B9863468046A59C43444B
:10586000A046099C9B00A1464A449844D30022AA22
:105870009146049A99449446089BA59A63448446A9
:10588000614494469A468B006344009343465868AB
:1058900002F062F84B4618605960029B002B24DB33
:1058A0004D46039C0026002701E0286869680CCC5F
:1058B00001F062FA02000B003000390000F038FEFF
:1058C000083D06000F005C45EFD153469E60DF6047
:1058D00004239C460433E0449C46009BE144E2449C
:1058E0009845D3D1079B0093D1E600260027ECE72B
:1058F00094FDFFFFA084000018FEFFFFFFFFFF1FC5
:105900000000703E0000704100002040FFFFFF3F9C
:10591000002180225204141B0EAA5450009999426F
:105920000EDD0EA884469B000EAA8900D258614461
:105930006344CF4800E01A68821A04C38B42FAD14C
:1059400001243CE7059B002B06D1009B0EAA013BDE
:105950009B00D558ED1517E70022C64B300000F02C
:10596000DDFD002800D024E100253DE732003B00AA
:105970000020C14901F072FC06000F00002C00D18C
:1059800032E7059A0020BC4900F0A4FB02000B009E
:105990003000390001F062FC06000F0024E701220C
:1059A00050E70026002754E64B46059A07938846A1
:1059B0008B000EA9CB58183A08950592002B0DD1F3
:1059C0008C464146AD4B43449B006344043B5868BE
:1059D0000139183A0028F9D088460592059A002026
:1059E000A54900F077FB434604000D00002B00DAC8
:1059F00005E29E000EAB9C464346DB0066449C4697
:105A0000059370AB9946049F67440097306801F096
:105A1000A3FF22002B0001F0AFF90022386079606B
:105A2000974B2000290001F0A7F9083F04000D0062
:105A3000043EB945EAD14AAB03939B4600239A46FC
:105A4000069B4246994643460132029204934B46D6
:105A5000002B00DAAAE080208A4B009D9846C00502
:105A6000894900260027002408E008239C460835C1
:105A7000E044544511DC4346186859682A686B684D
:105A800001F07AF902000B003000390000F050FDFF
:105A9000013406000F00A145E7DA5B46C0C39B4610
:105AA00001239C46009BE244083B0093029B9A45DD
:105AB000CDD1049B9846A49B022B00DD8EE0002BE9
:105AC00037DC1FD1059B00271D00039B00249C464B
:105AD0001E006544083E2A686B683800210000F00B
:105AE00027FD083D07000C00AE42F4D1089B002BB7
:105AF00003D080231B069C4664443A0023000D9982
:105B00000A604B600720079B18409B239B009D4425
:105B10003CBC90469946A246AB46F0BD009B0EA900
:105B20005A1E92000EAB9B5807935B025B0A8B5088
:105B300057E64346002B00DA70E100200021DB002D
:105B40004AAAD61848AF32687368083E00F0F0FCE5
:105B5000B742F8D1089B002B00D025E10B000200D2
:105B60004A984B990D9C2260636001F077FB434695
:105B700007000C00002B13DD01254CAEB1463800A8
:105B80002E0021004C4601360CCC00F0D1FCA14681
:105B9000B045F7DA089B07000C00002B00D015E198
:105BA0003A0023000D998A60CB60ABE700260027FE
:105BB00073E701239C46009BE1440225002B00DD96
:105BC000EBE532003B0000202B4901F047FB0600CB
:105BD0000F0009E60024F2E54AAB0393A49B032BD4
:105BE00000D08FE74346002B00DC14E1039ADB0072
:105BF0009B46130091465B441E685F68234B4344F9
:105C00000293DB00994448AB9A464B465C681B689C
:105C10001800210032003B000090019100F088FC48
:105C200004000D0002000B000098019901F016FB22
:105C30003B00320000F07CFC4B469860D9601C6051
:105C40005D6008235B429C46E14426002F00CA4564
:105C5000DBD14346012B00DCE3E0039A13005B44F5
:105C60001E685F68029BDB0099464A44904610E03C
:105C7000FFFFFF000000E03F0000F03FFFFFFF3F9D
:105C80000000703E60840000FB21F93FFFFFFF1F12
:105C9000984643465C681B681800210032003B00B0
:105CA0000090019100F044FC04000D0002000B0084
:105CB0000098019901F0D2FA32003B0000F038FC64
:105CC0004346039A9860D9601C605D60083B2600DB
:105CD0002F009A42DCD14D469446002600244746C8
:105CE000083565442A686B683000210000F020FC0C
:105CF000083D06000C00AF42F4D1039B4A9F5D684B
:105D00009968D868089B002B65D0802212069446BB
:105D10000D9B6544604464441F605D609960D86079
:105D20001E615C61EEE69A464B460793059B300088
:105D30005A423900089500F0CDF900223A4B06008E
:105D40000F0000F0EBFB002824D0384B002230007D
:105D5000390001F011F801F0C9FD52460400950028
:105D600001F0FAFD0022304B01F006F802000B00B2
:105D70003000390001F072FA01F0B8FD0EAA50515E
:105D80000122059B524418339046059393000EAAB6
:105D9000D45023E65346300039009C0001F0A6FDA4
:105DA0000EAB1851D04619E680230D9A1B06CB186E
:105DB000106053600B0002004A984B9901F04EFAB4
:105DC000434607000C00002B00DDD5E680231B06B0
:105DD0009C466444E4E62B003A000D9D2A606B600B
:105DE0000A000300AA60EB60320023002A616B61A5
:105DF00088E6099BDB00009372AB049332E4A49B1A
:105E0000022B00DDE8E6002B00DD92E600D079E60B
:105E1000002700246AE6002600246EE70020002107
:105E200098E60026340068E7000070410000703EEC
:105E3000F0B5CE46474680B587B000920193474AF9
:105E40004B00814688465B08934207DC4146484642
:105E500001F04CFD4146031E484666D04A46434683
:105E60004846414600F088FF04000D0002000B0088
:105E70004846414600F080FF394A3A4B06000F0081
:105E80002000290000F078FF374A384B01F0E6F98E
:105E900022002B0000F070FF354A364B00F048FB23
:105EA00022002B0000F068FF334A344B01F0D6F992
:105EB00022002B0000F060FF314B324A00F038FB2B
:105EC0000E9B02900391002B34D000980199002280
:105ED0002D4B00F051FF029A039B04900591300076
:105EE000390000F049FF02000B000498059901F009
:105EF000B5F922002B0000F03FFF009A019B01F052
:105F0000ADF9224A04000D00214B3000390000F0A9
:105F100033FF02000B002000290000F009FB020003
:105F20000B004846414601F099F907B00CBC904679
:105F30009946F0BD02000B002000290000F01CFF74
:105F4000124A134B01F08AF932003B0000F014FFB3
:105F50004A46434600F0ECFAE7E7C046FFFF3F3E03
:105F60007CD5CF5A3AD9E53DEB9C2B8AE6E55A3EE3
:105F70007DFEB157E31DC73ED561C119A0012A3F7F
:105F80001111813FA6F810110000E03F4955555509
:105F90005555C53F49004B0819007047474AF0B5B1
:105FA0004F4691464B005B0D99444646D6464A46BD
:105FB000C0B505000C000E0088460700132A27DC38
:105FC000002A4BDB3E4B13419A460B0052461340CE
:105FD000034318D03B4A3C4B2800210000F0A8FAAC
:105FE0000022002300F090FA002847D0002C04DAA9
:105FF00080234A465B031341984446465346002794
:106000009E43380031001CBC90469946A246F0BD24
:10601000332A08DD8023DB009945F4D102000B0010
:1060200000F086FAEFE7294A94460122634452427F
:10603000DA4092460242E6D0224A234B2800210051
:1060400000F076FA0022002300F05EFA002815D056
:10605000002C1EDB534646469F430FE0194A1A4B5D
:106060002800210000F064FA0022002300F04CFA1E
:10607000002803D0002C04DB002700263800310064
:10608000C1E76400640825430027002DF6D0104EB8
:10609000F4E74B46142B0BD03422D21A0123934041
:1060A0005D19BD4208D201239C462F00E044D1E790
:1060B000133B9C46E044CDE72F00CBE701FCFFFFFC
:1060C000FFFF0F009C7500883CE4377EEDFBFFFF6F
:1060D0000000F0BF4B0070B55B0D14000A00002BF0
:1060E0001AD14B005B08034315D0234B002200F06C
:1060F00043FE224B9C422DDB0A004B005B0D363BDE
:106100001F4DE318AB422ADC002B0DDD1D4C1B0597
:1061100022401A43110070BD1B4DAB42F0D102006A
:106120000B0000F005FAF6E71D00353519DA174BBC
:1061300002009C4209DD0B001548164900F032F8B8
:10614000134A144B00F018FEE5E70B001248134900
:1061500000F028F8104A114B00F00EFEDBE70200B9
:10616000E9E7084C363322401B051343190000228F
:106170000B4B00F001FECEE700005043B03CFFFFA8
:10618000FE070000FFFF0F80FF07000050C3000064
:106190009C7500883CE4377E59F3F8C21F6EA50158
:1061A0000000903C30B54A00DB0FDB0752081A4371
:1061B000110030BD02B4714649084900095C49002C
:1061C0008E4402BC7047C046002243088B4274D301
:1061D00003098B425FD3030A8B4244D3030B8B42E8
:1061E00028D3030C8B420DD3FF22090212BA030CF1
:1061F0008B4202D31212090265D0030B8B4219D3D2
:1062000000E0090AC30B8B4201D3CB03C01A5241F1
:10621000830B8B4201D38B03C01A5241430B8B4239
:1062200001D34B03C01A5241030B8B4201D30B0322
:10623000C01A5241C30A8B4201D3CB02C01A524149
:10624000830A8B4201D38B02C01A5241430A8B420C
:1062500001D34B02C01A5241030A8B4201D30B02F5
:10626000C01A5241CDD2C3098B4201D3CB01C01A0F
:10627000524183098B4201D38B01C01A5241430919
:106280008B4201D34B01C01A524103098B4201D307
:106290000B01C01A5241C3088B4201D3CB00C01A74
:1062A000524183088B4201D38B00C01A52414308EC
:1062B0008B4201D34B00C01A5241411A00D2014611
:1062C000524110467047FFE701B5002000F0F0F89A
:1062D00002BDC0460029F7D076E7704703460B435E
:1062E0007FD4002243088B4274D303098B425FD3CF
:1062F000030A8B4244D3030B8B4228D3030C8B42FB
:106300000DD3FF22090212BA030C8B4202D31212E0
:10631000090265D0030B8B4219D300E0090AC30BB5
:106320008B4201D3CB03C01A5241830B8B4201D362
:106330008B03C01A5241430B8B4201D34B03C01A4B
:106340005241030B8B4201D30B03C01A5241C30AC3
:106350008B4201D3CB02C01A5241830A8B4201D334
:106360008B02C01A5241430A8B4201D34B02C01A1E
:106370005241030A8B4201D30B02C01A5241CDD2C3
:10638000C3098B4201D3CB01C01A524183098B420E
:1063900001D38B01C01A524143098B4201D34B01F7
:1063A000C01A524103098B4201D30B01C01A52415A
:1063B000C3088B4201D3CB00C01A524183088B42E1
:1063C00001D38B00C01A524143088B4201D34B00CA
:1063D000C01A5241411A00D201465241104670473C
:1063E0005DE0CA0F00D04942031000D34042534041
:1063F00000229C4603098B422DD3030A8B4212D301
:10640000FC22890112BA030A8B420CD38901921132
:106410008B4208D3890192118B4204D389013AD06F
:10642000921100E08909C3098B4201D3CB01C01A44
:10643000524183098B4201D38B01C01A5241430957
:106440008B4201D34B01C01A524103098B4201D345
:106450000B01C01A5241C3088B4201D3CB00C01AB2
:10646000524183088B4201D38B00C01A5241D9D2CA
:1064700043088B4201D34B00C01A5241411A00D24B
:106480000146634652415B10104601D34042002B47
:1064900000D54942704763465B1000D3404201B5C6
:1064A000002000F005F802BD0029F8D016E770477B
:1064B0007047C0468446101C62468C46191C6346D1
:1064C00000E0C0461FB500F0EFFB002801D400211A
:1064D000C8421FBD10B500F047FB4042013010BD5F
:1064E00010B500F0E1FB002801DB002010BD012009
:1064F00010BDC04610B500F0D7FB002801DD00201C
:1065000010BD012010BDC04610B500F069FB002889
:1065100001DC002010BD012010BDC04610B500F008
:106520005FFB002801DA002010BD012010BDC0462D
:10653000F0B54F464646D6460C000903C0B5490A99
:10654000470F5E0039431F03DB0F9C4665007B0A43
:10655000570F1F436D0DE40F760DA146C000B846DE
:10656000D200AB1B64457BD0002B5FDD002E00D03A
:10657000A4E03E00164300D112E15E1E002E00D0C2
:106580009EE1871A4346B84280410125C91A40421C
:10659000091A0B0200D431E149024E0A002E00D143
:1065A0006EE1300001F044FA0300083B1F2B00DDD0
:1065B00061E120223900D21A9E40D1409F400E4313
:1065C0009D4200DD51E15D1B6B1C1F2B00DD7CE15A
:1065D0002021C91A3D0030008F408840DD40791EDF
:1065E0008F41310007222843D940002507433A4014
:1065F000002A09D00F233B40042B05D03B1DBB4292
:10660000BF417F42C9191F000B0200D426E26A1C59
:10661000C64B55056D0D9A4200D106E1C44AFF08EC
:106620000A40530752023B43120B8EE0002B00D06E
:10663000B8E06B1C5B055B0D012B00DC30E1871AB9
:106640004346B842B641CB1A76429E1B330200D570
:106650004CE13B003343A1D100220024002570E02F
:10666000002B00DCE5E0002E00D183E0AF4EB54208
:1066700060D0802636043743B846382B00DC3EE134
:10668000434613431F007A1E97413F1887428041BB
:10669000404209180B0200D4B0E0A44B01359D42E2
:1066A00000D1C3E0A24A7B080A4001210F401F43EA
:1066B0005108D30707221F433A4099E79B4EB54242
:1066C00038D0802636043743B846382B00DDDCE06E
:1066D0001F2B00DC30E11E004746203EF740BC4641
:1066E000202B04D04026F31A46469E403243170022
:1066F00063467A1E97411F43CCE0002B00D104E291
:106700004346134300D159E14B07C0081843802387
:10671000C9081B03194208D04546ED081D4204D1A3
:106720004346D008590708432900420FC9007F4D4E
:106730001143C0004B07CA087C49C00803438D427F
:1067400068D012036D05120B6D0D002112031800A5
:10675000130B0A0D12051A43764B2D0513402B43DC
:106760005B00E4075B08234319001CBC9046994674
:10677000A246F0BD3E00164312D05E1E002E00D091
:1067800000E18718874280414144404209180125B1
:106790000B0233D5022585E76446330041461000DD
:1067A0001D00C7E7002D00D0DAE00C000443F3D051
:1067B0005C1C00D19FE15D4CA64200D12FE1DB4380
:1067C000382B00DD66E11F2B00DD83E1202405006E
:1067D000E41A0F00DD40D940A0404346A7405B1AB1
:1067E000441EA04198462F433843171ABA4292419B
:1067F00043465242991A64463500CAE607223A4097
:10680000002A00D0F6E64B07CA084849FF083B4378
:106810008D4296D11900114300D19EE180210903D8
:106820000A431203120B414D8FE71500002200238B
:106830008BE7002B00D0C7E06B1C5F057F0D012F9D
:1068400000DCF1E0394DAB4200D1B9E085180A0017
:10685000854289414244494251180722CF076D08B9
:106860002F4349083A401D00C2E607223049ED1A7D
:1068700031403A40BCE63E002838864000279FE67B
:10688000380001F0D5F820308EE6434613431F0050
:106890007A1E9741C71BB84280414042091A78E6E8
:1068A0000E003B0006431343002D61D1002E00D0A3
:1068B000F4E0002B00D11BE164463900100039E7F9
:1068C0001A4FBB427AD03300FFE630001F3DE8404C
:1068D000202B03D04021CB1A9E4037437B1E9F4183
:1068E000072207433A400021002589E7171A43464B
:1068F000BA42B641591A76428E1B64464EE61F2BA9
:1069000000DDADE020264746F61AB740B94617002D
:10691000B246DF404E463E4337005646B240561E12
:10692000B24117434246DA408918AEE6FF0700003D
:10693000FFFF7FFFFFFF0F8020264746F61AB74074
:10694000B9461700B246DF404E463E433700564632
:10695000B240561EB24117434246DA40891A99E7BF
:106960007F4CA6425BD0802424045B42214327E76E
:10697000002E0CD1002B00D1CBE064463900100072
:10698000774DD7E6764FBB4218D0330075E6002B23
:1069900014D04B07C00818438023C9081B031942B1
:1069A00007D0FC081C4204D17907D0080843E1460F
:1069B00021004C46420FC9001143C000684DB9E6A2
:1069C0001D0000220023C0E6002D5BD10D00054311
:1069D00000D1E2E65D1C00D1B0E0614DAE421FD0B7
:1069E000DB43382B71DC1F2B00DD96E020250F00E8
:1069F000ED1AAF40B9460700AA46DF404D463D4379
:106A00002F005546A840D940451EA8418844074359
:106A1000BF18974292415142414435003AE66446DC
:106A200035004146100085E60B000343002D00D0E1
:106A300063E6002BF5D04346134300D17AE687186E
:106A40008742804107224144404209183A400B02E4
:106A500000D4D5E6434B01351940C9E5380069E655
:106A60001E004746203EF740BC46202B04D040265F
:106A7000F31A46469E403243170063467A1E9741FA
:106A80001F4302E6364DAE42CAD080252D045B423C
:106A90002943A6E70843411E8841A6E6002B00D102
:106AA00048E6871A4346B842B641CB1A76429E1B47
:106AB00033024BD5171A4346BA429241591A5242F1
:106AC000891A072264463A4092E501430F00791E75
:106AD0008F419DE71C000F00203CE740202B03D096
:106AE0004024E31A99400843411E884138437CE61C
:106AF0000022002425E6171A4346BA429241591A49
:106B00005242891A6446350043E541461000144D4F
:106B100010E680220024120380E61D000F00203DB5
:106B2000EF40BC46202B03D04025EB1A9940084388
:106B300007006346781E87411F4369E7871897421D
:106B40009B4141445B42C9183500A3E53B003343F8
:106B5000CED0072231003A4052E600231A00F4E575
:106B6000FF070000FFFF7FFFF0B54F464646D646C1
:106B70008446C0B58046194E18030F034D00000B24
:106B80005C0082463F0B6D0DC90F9146640DDB0F13
:106B90000120B5420AD0B44203D0A54201D15745E5
:106BA0000CD01CBC90469946A246F0BD66463E43BA
:106BB000F7D1AC42F5D154461443F2D10120C84577
:106BC000EFD1994207D0002DEBD163461F43380027
:106BD000471EB841E5E70020E3E7C046FF07000095
:106BE000F0B54F464646D6464D00C0B50E03C90F18
:106BF0008A462C491F035C008046360B6D0D91467A
:106C00003F0B640DDB0F8D421ED08C4216D0002D41
:106C10001ED130438446002C01D13A4323D0624632
:106C2000002A1AD09A4529D051460220013908403D
:106C300001381CBC90469946A246F0BD390011436C
:106C4000E5D002204042F4E73043FAD1AC420FD005
:106C5000002C0FD13A43E7D00CE00122013B9343D3
:106C600018000130E5E763460020002BE1D0DBE7A8
:106C70003A43E6D19A45D7D1A542D5DCA54205DBFA
:106C8000BE42D1D808D00020BE42D2D25046012305
:106C9000013898430130CCE7C845C5D80020C84525
:106CA000F4D3C6E7FF070000F0B54F464646D64688
:106CB0004D00C0B50E03C90F8A462E491F035C0064
:106CC0008046360B6D0D91463F0B640DDB0F8D42F8
:106CD00018D08C4211D0002D18D130438446002C9E
:106CE0001ED13A431CD163460020002B30D05146C0
:106CF00002200139084001382AE039001143EAD066
:106D0000022025E03043FBD1AC4226D0002C26D116
:106D10003A4324D15146022001390840013817E096
:106D20006246002A0FD09A45E1D1A54205DBBE425A
:106D3000DDD819D00020BE420AD2504601230138C6
:106D40009843013004E00122013B934318000130D5
:106D50001CBC90469946A246F0BD3A43D0D19A4514
:106D6000C5D1A542C3DCE0E7C845C0D80020C8456E
:106D7000E3D3EDE7FF070000F0B55746DE464E4689
:106D80004546E0B5834606000F03480087B09246AB
:106D90001D003F0B400DCC0F002800D16FE0DE4BF3
:106DA000984238D08023FF001B041F43730F3B43DE
:106DB0000193DA4B0027994600239B46F600814455
:106DC0002B0369001B0B52469846490DED0F002915
:106DD00000D185E0D04B994200D173E04346DA0000
:106DE00080231B0413435246CC48520F844613435E
:106DF000524600206144D20089442100694000913C
:106E00008C46012149448A460F2F00D990E0C4499D
:106E1000BF00CF59BF465B463B43019300D06AE1B8
:106E200002230827002681469B46C9E732005846C0
:106E3000019B61460091022800D175E0032800D132
:106E4000FEE1012800D02CE10023002700260025C8
:106E50003F032A0D3F0BB34812053A4302401B057E
:106E60001343009A5B00D1075B080B433000190005
:106E700007B03CBC90469946A246AB46F0BD5B4687
:106E80003B43019300D12FE1002F00D1A5E1380051
:106E900000F0CEFD03000B3B1C2B00DD96E11D2214
:106EA000D31A5A460100DA405E4608398F40130073
:106EB0008E403B4301939C4B00271B1A99460023AD
:106EC0009B467DE7414653460B4393498C46E1443C
:106ED000002B00D01AE102220220174300228CE787
:106EE000134300D10DE14346002B00D181E1404620
:106EF00000F09EFD02000B3A1C2A00DD72E1010049
:106F0000434608398B4098461D239A1A5346D3406E
:106F10001A004346134352468A404946081A82499A
:106F200089468144002068E77B4B002700268EE7D6
:106F3000140C1204120C1100370C3604350C794372
:106F400028008C462E00604360448346564321004F
:106F5000300C80465846794340440291844506D916
:106F60008846802149028C46E0444146029136041D
:106F7000010C360C00048B4681191E0C1B041B0CE3
:106F80000391190079438C46280075436544A8464F
:106F90005843050C45447743A94203D9802149024F
:106FA0008C466744290C8C4639000004000C2D04E3
:106FB0002D186144AB4405915946049101990F0481
:106FC0003F0C080C390051434243904602008C4666
:106FD000090C8B4662437C4344445C44A04503D97E
:106FE0008021490288464244210C884661460904B2
:106FF000090C8C4639005943434370437E430F0CC0
:10700000F6182404BE19644442448C46B34203D9A2
:1070100080235B0298464044029B61469846049B4D
:10702000370443449B46AB45AD416B420D04059983
:107030002D0C8C467F196744FD18A8465D462D1916
:10704000A542A44193466442A446C344DC448F4213
:10705000BF4198459B4193459241A445A4415B4261
:107060007F421F43360C52426442BF192243BF186D
:10707000624638184302D20D039913436A020A4349
:10708000501E82416146ED0D2A434E023243D90122
:1070900000D4B3E00126500832400243DE073243F9
:1070A0005B08224C5444002C62DD510709D00F20AC
:1070B0001040042805D0101D9042924152429B1866
:1070C0000200D90104D580241948E4000340544447
:1070D0001848844200DD27E75E075B02D2081F0BD9
:1070E000630516435B0DB2E600239946013304277E
:1070F00000269B4664E60323019781460C279B46A6
:107100005EE6012201201743002276E603230320D6
:107110001F43434671E6C046FF07000001FCFFFF26
:10712000B0840000FFFF0F800DFCFFFFFF03000095
:10713000FFFFFFFEFE0700000023802700933F03B0
:107140000026434B83E6019B3200A446584670E676
:10715000AC466EE6802701993F0339422DD03B4271
:107160002BD11F433F033F0B00951600384B6EE6B3
:1071700001252D1B382D00DD66E61F2D40DC35482E
:107180001C005044160082408440EE40501E824154
:1071900034431443EB40620709D00F222240042AF3
:1071A00005D02200141D9442804140421B181A024F
:1071B0003ED501230027002649E68027019B3F0397
:1071C0001F433F033F0B0094214B40E603005A4608
:1071D000283B9A40002601926DE6584600F028FCB4
:1071E000203057E603005246283B9A401300002205
:1071F00093E6504600F01CFC20307BE6CA4650E780
:107200001F201E004042041BE640202D03D0124CDC
:107210005444A3401A43501E82413243072600279C
:10722000164009D00F200023104014000428B9D1C3
:1072300022005E075B021F0BD2081643002306E6FE
:1072400080273F031F433F033F0B1600004BFEE523
:10725000FF0700001E0400003E040000F8B557467A
:107260004E464546DE460C000903E0B5490A460F86
:107270005F0031431E03DB0F760A9B46530F3343F7
:10728000C84E6500C000E40FD2006D0DA2468146D5
:107290007F0D9C469046B74200D1B9E05B4601267F
:1072A00073409B46EE1BA34500D183E0002E63DDB7
:1072B000002F00D0B1E06346134300D123E1731ED9
:1072C000002B00D0BAE1861A6346B0428041012506
:1072D000C91A4042091A0B0200D447E149024B0A7D
:1072E00098464346002B00D189E1404600F0A0FBC0
:1072F0000300083B1F2B00DD7CE120223000D21A66
:107300004146D040994002009E400A439D4200DD24
:107310006AE15D1B6B1C1F2B00DD94E12021100036
:107320003500C91A8E40DA408840DD40711E8E411A
:10733000110007222843002506433240002A09D0C5
:107340000F233340042B05D0331DB342B6417642A0
:1073500089191E000B0200D43DE26A1C914B5505B1
:107360006D0D9A4200D119E18F4AF6080A4057077D
:1073700052023743120B9BE0002E00D0C5E06E1C7A
:107380007605760D012E00DC48E16746861ACB1B98
:10739000B042BF417F42B8461F004346FF1A3B0040
:1073A000B8461B0200D55FE137439AD10022002482
:1073B000002579E0002E00DCFAE0002F00D18DE0FE
:1073C000784B9D4267D0802367461B041F43BC4611
:1073D000382E00DC52E1634613435A1E93411E18B7
:1073E00086428041404209180B0200D4BEE06D4B3A
:1073F00001359D4200D1D2E06B4A73080A40012159
:107400000E401E435108D30707221E43324095E722
:107410001E00164300D045E740E7624B9D423AD03C
:10742000802367461B041F43BC46382E00DDEBE07B
:107430001F2E00DC3AE133006746203BDF403B0073
:10744000202E05D04027BF1B6646BE4032439046E3
:107450004646721E96413343DAE0002B00D114E217
:107460006346134300D168E180234E07C008C90872
:107470001B030643194208D06046C008184204D1D5
:1074800063460100D2085E071643F3009946C9001F
:10749000720F444D11434B46DE08424B4F073743B2
:1074A000CA089D4200D16EE012036D05120B6D0DEE
:1074B00000211203130B0A0D12051A433B4B2D0535
:1074C00013402B435B00E4075B082343380019009B
:1074D0003CBC90469946A246AB46F8BD6346134372
:1074E00011D0731E002B00D007E186188642804120
:1074F00061444042091801250B0237D502257BE77C
:107500003E00614691463500C5E75C46002D00D03F
:10751000E1E00B000343F3D0731C00D1ACE1214B3D
:107520009F4200D13AE1F343382B00DD6FE11F2B7E
:1075300000DD8CE120250E00ED1AAE40B0460600BD
:10754000AA46DE40454635432E005546D940A84060
:107550006346451EA8415B1A9C463043161AB24248
:10756000924163465242991A3D00B4E607223240E6
:10757000002A00D0E4E60B4BF6084F073743CA0851
:107580009D4200D090E73B00134300D1A6E1802349
:107590001B031A431203120B024D89E71500002248
:1075A000002785E7FF070000FFFF7FFFFFFF0F8039
:1075B000002E00D0C7E06B1C5E05760D012E00DCAE
:1075C000F0E0C84DAB4200D1B9E085180A00854211
:1075D00089416244494251180722CE076D082E4363
:1075E000490832401D00A9E6BF49ED1A11400722A3
:1075F0003240A3E6320028388240002686E630007A
:1076000000F016FA203073E6634613435A1E934186
:10761000C61AB04280414042091A5CE60E00674635
:1076200006431743002D5ED1002E00D0F3E0002F5B
:1076300000D11EE15C46614691462CE7A94FBE424F
:107640007BD01E00F1E610001F3DE840202B03D048
:107650004021CB1A9A401643731E9E4107220643CF
:1076600032400021002583E7161A6346B24280416A
:10767000591A40420B1A98465C4632E61F2E00DD2E
:10768000ABE02027BB1B9A4663465746BB40994652
:1076900013004F46F3401F433B005746BA40571E66
:1076A000BA4113436246F240891898E62027BB1B73
:1076B0009A4663465746BB40994613004F46F340EF
:1076C0001F433B005746BA40571EBA411343624618
:1076D000F240891A9CE7834B9F425FD080252D049E
:1076E0007342294320E7002E0CD1002F00D1D0E0B7
:1076F0005C46614691467B4DCDE67A4FBE421CD03A
:107700001E0065E6002F18D0C0084E0706438020F3
:10771000C9080003014208D06346DC08044204D1D2
:107720002100DA46D2085E071643F3009946012489
:107730005346C900720F11431C406A4DABE61D0051
:1077400000220027B4E6002D59D10B00034300D1DD
:10775000D6E6731C00D1B2E0624B9F421ED0F343C9
:10776000382B6FDC1F2B00DD97E020250E00ED1A73
:10777000AE40B0460600AA46DE40454635432E00E0
:107780005546A840D940451EA8418C440643B6182A
:1077900096429241514261443D0025E63D006146DA
:1077A000914678E60B000343002D00D055E6002BF0
:1077B000F5D06346134300D16DE6861886428041BA
:1077C00061444042091800220B0200D4D0E6464B27
:1077D00001351940B2E5B1465DE633006746203B0E
:1077E000DF403B00202E05D04027BF1B6646BE4031
:1077F000324390464646721E96413343EFE5394B7D
:107800009F42CBD080252D0473422943A8E708432B
:10781000411E8841A2E6002F00D13CE66346861A4D
:10782000CF1AB0429B415B42FB1A98461B024ED5D1
:10783000161A6346B2429241591A5242891A5C465C
:1078400000227BE501430E00711E8E419FE71D0063
:107850000E00203DEE40B046202B04D04025EB1A10
:1078600099400843814648464346411E8841184393
:1078700074E60022002417E6161A6346B2429241CB
:10788000591A5242891A3D0025E561469146154D27
:1078900001E680220024120379E61D000E00203D3F
:1078A000EE40B046202B04D04025EB1A9940084307
:1078B00081464E464346711E8E411E4367E7861839
:1078C00096429B4161445B42C9183D008CE54746A6
:1078D0003743CED007224146324049E600273A00DE
:1078E000E6E5C046FF070000FFFF7FFF30B5144DFF
:1078F0000A034B00120B5B0DC90F0024AB4211DDD4
:10790000104CA34210DC8024640322430E4CE41A82
:107910001F2C0CDD0D48C31ADA4013005C4200290D
:1079200000D11C00200030BD094BCC18FAE7094DEE
:10793000E040AC4663449A4013000343EEE7C04680
:10794000FE0300001D0400003304000013040000C7
:10795000FFFFFF7FEDFBFFFF70B500282DD0C317A1
:10796000C5185D40C40F280000F062F8154B1B1AC3
:107970005B055B0D0A2815DD0B38854000222D03C1
:107980002D0B002110002D030A0D2D0B12052A438B
:107990000D4D1B052A4013435B00E4075B0823439E
:1079A000190070BD02002900153291400A000B2118
:1079B000081AC5402D032D0BE3E700240023002502
:1079C0000022DEE71E040000FFFF0F8010B5041E3A
:1079D00025D000F02DF8144B1B1A5B055B0D0A280F
:1079E00012DD0B38844000222403240B00211000F8
:1079F00024030A0D240B120522430C4C1B052240C4
:107A000013435B00590810BD02002100153291405C
:107A10000A000B21081AC4402403240BE6E70023C4
:107A200000240022E2E7C0461E040000FFFF0F8092
:107A30001C2101231B04984201D3000C10391B0A9E
:107A4000984201D3000A08391B09984201D3000962
:107A5000043902A2105C40187047C04604030202B9
:107A600001010101000000000000000010B50A2221
:107A7000002100F0A5F910BD70B500260C4D0D4C8D
:107A8000641BA410A64209D1002600F0C9F90A4DD2
:107A90000A4C641BA410A64205D170BDB300EB587C
:107AA00098470136EEE7B300EB5898470136F2E706
:107AB0000C0200200C0200200C02002020020020FA
:107AC000EC3000687047000010B5034B01001868E7
:107AD00000F07CF810BDC0463C00002010B5034B00
